:040000008A11112828
:10000800FE00030EF2000408F3000A08F40083124D
:1000180003137F08F5008A11FC2D8A111328783004
:1000280084007E308A1180208A1183132030840056
:1000380052308A1180208A11BE308400D5308A114E
:1000480080208A11BE30FD000630FE002E30FF00F1
:10005800A03084008A1156208A116B30FD000630CA
:10006800FE00FA30FF00673084008A1156208301B1
:100078008A11882A83120313D200520883120317A5
:100088008D00831603170C14831203170C08F6004F
:10009800760883120313D300530808007E088A00E9
:1000A8007F08820052208A118000840A04087D0695
:1000B80003190034FF0A0319FE0A5628831603138E
:1000C8003E08033A031D0800C130F6007608C00058
:1000D8000430F6007608BE00080083120313D2002D
:1000E8000130F700760A7A280310F70DFF3E031D4A
:1000F800782877085204080064008001840A0406FE
:1001080003190034040681286430F6000030F70033
:100118008A1187268B170800831603130D1608000B
:10020000FF0001308A007F08820705298A118828AB
:100210008A11892F8A115E2F8A11C92D8A111C29F2
:100220008A11962B8A11F52C8A11EB2F8A116228DC
:100230008A11A32E8A114B2C83120313E20103307F
:100240006202031808006208463E84008313800897
:10025000031D49290314620D123E840087300318E0
:10026000013EFF008A1100278A11DE005E08F600B9
:10027000F7016208DF005F07123E84008730031831
:10028000013EFF008A1100278A118A11DC218A11A0
:10029000D529831203136208463E840083130008A5
:1002A000FF3A031D73290314620D123E8400873048
:1002B0000318013EFF008A1100278A11DE005E0844
:1002C000F600F701F70A6208DF005F07123E8400BC
:1002D00087300318013EFF008A1100278A118A1116
:1002E000DC218A11D529831203136208463E84005B
:1002F00083138008031DD0290314620D123E84006D
:1003000087300318013EFF008A1100278A11DE00A2
:100310005E08F6006208DF005F07123E8400873047
:100320000318013EFF008A1100278A118A11F12368
:100330008A1183120313E0006008E1000314620DC8
:10034000123E840087300318013EFF008A11002707
:100350008A11DE005E08F600E10800300319013062
:10036000DF005F08F7006208E0006007123E8400CB
:1003700087300318013EFF008A1100278A118A1175
:10038000DC218A11831203136208433E8400831325
:100390000008DE006208463E84005E088000D52921
:1003A0006208463E8400013080020130831203134C
:1003B000DE005E08E2071F2983120313D7007C2AA0
:1003C000083076020318112AF708031DF9290130B5
:1003D000D200760AED290310D20DFF3E031DEB2952
:1003E0005208FF3A0505D300D4015308D800540839
:1003F0000D2A760AD2000130D3000030D400032A3F
:100400000310D30DD40DD20B002A53080504D500D8
:100410005408D6005508D8005608D9005808850059
:100420000800760885000800083076020318452A7F
:10043000F708031D2D2A0130D200760A212A031065
:10044000D20DFF3E031D1F2A5208FF3A0605D300B6
:10045000D4015308DA005408412A760AD200013048
:10046000D3000030D400372A0310D30DD40DD20BA3
:10047000342A53080604D5005408D6005508DA007B
:100480005608DB005A088600080076088600080037
:10049000083076020318792AF708031D612A013013
:1004A000D200760A552A0310D20DFF3E031D532AAF
:1004B0005208FF3A0705D300D4015308DC00540862
:1004C000752A760AD2000130D3000030D4006B2A9E
:1004D0000310D30DD40DD20B682A53080704D5009E
:1004E0005408D6005508DC005608DD005C0887007B
:1004F00008007608870008005708003A0319E02929
:10050000013A0319142A033A0319482A872A0800D2
:100510001F3083120313DE008730DF008A11AD27FE
:100520008A1183120313BF01C1010630410203186F
:100530000C2B4108B23E840083130008013A031DCE
:10054000042B4108E3006307A03E84000008E40098
:10055000840A0008E5004108AC3E840000086407F6
:10056000840065080318650AFF008A1100278A11B4
:10057000003A0319F02A4108B83E840083130008AA
:10058000E3004108AC3E8400000AC82A0310E30CD3
:10059000FF3E031DC62A631CE72A4108E3006307E8
:1005A000A03E84000008E400840A0008E500410839
:1005B000AC3E840000086407840065080318650ADF
:1005C000FF008A1100278A11E6006608BF0001308B
:1005D000E3004108AC3E84006308831380070C2BC2
:1005E0004108AC3E8400831380011E3084008730B4
:1005F000FF008A1100278A1141020318042B4108C9
:10060000B23E8400831380010130E3006308C10718
:1006100006304102031C992A3F080319912A3F081A
:100620008A1100218A1183120313912A0130F000EC
:10063000700883160313B2007A08053A031D542B81
:10064000FA010130F0007008B3000130F0007008CA
:1006500083120313BE074B2B0130F0007008831682
:100660000313B50083120313BE010130F0007008BC
:10067000BD073D08053A031D442BBD010130F000C4
:10068000700883160313B6000130F000700883165B
:100690000313B400542B83123E08023A0319442B6F
:1006A000063A03192C2B542BF10102307102031866
:1006B000912B7108F00001300310F00DFF3E031D77
:1006C0005C2B0310700D203E840083130008013A58
:1006D000031D892B7108F00001300310F00DFF3E5F
:1006E000031D6D2B0310700D013E203E8400800819
:1006F0000319892B7108F00001300310F00DFF3E43
:10070000031D7D2B0310700D013E203E840001303F
:1007100080020130F0007008F10702307102031C02
:10072000592B0130F0007008FA07080083120313F8
:10073000DA0103305A020318080003145A0D183E58
:10074000840087300318013EFF008A1100278A11B8
:10075000D6005608F6005A08D7005707183E8400FE
:1007600087300318013EFF008A1100278A118A1181
:10077000F1238A1183120313D8005808D9005A08AC
:10078000493E8400831300085906031DE12B5A08D3
:100790004F3E84000008033A031DD92B5A08493EF6
:1007A00084000008D6005A084C3E84005608800099
:1007B000E12B0130D6005A084F3E840056088007CE
:1007C000E52B5A084F3E840080015908D6005A088C
:1007D000493E8400560880000130D6005608DA07EA
:1007E000992B83120313D4003F2C08307602031890
:1007F000082C0508D200760AFF2B0310D20CFF3E0E
:10080000031DFD2B52080139D3005308D500080001
:100810000508D2005208D5000800083076020318F7
:10082000202C0608D200760A172C0310D20CFF3EAB
:10083000031D152C52080139D3005308D5000800B8
:100840000608D2005208D5000800083076020318C6
:10085000382C0708D200760A2F2C0310D20CFF3E4A
:10086000031D2D2C52080139D3005308D500080070
:100870000708D2005208D5000800D5010800540826
:10088000003A0319F52B013A03190D2C033A031909
:10089000252C3D2C0800F6010230760203180800D2
:1008A000760883120313D20001300310D20DFF3EED
:1008B000031D552C0310520D203E840083130008A5
:1008C000013A031D9F2C7608D20001300310D20D8F
:1008D000FF3E031D662C0310520D013E203E840096
:1008E0000008031D9F2C7608D20001300310D20DA2
:1008F000FF3E031D762C0310520D033E203E840064
:1009000000087608D20001300310D20DFF3E031D0F
:10091000842C0310520D023E203E84000008D300B8
:100920007608D40001300310D40DFF3E031D932C34
:100930000310540D013E203E840053088000013016
:10094000D2005208F6074C2C83120313D7008A11E9
:100950003E258A1183120313D6005608D800580882
:10096000031DD708031D08000A30D6005608DC0016
:10097000DA010D305C020318D62C5C088A113E2087
:100980008A1183120313D6005A08323E8400560897
:10099000831380000130D6005608DC070130D600F2
:1009A0005608DA070D305C02031CBD2C0430D6005B
:1009B0005608DB00D9010B305B02031808005B0806
:1009C0008A113E208A1183120313D6005908283E4B
:1009D00084005608831380000130D6005608DB07D8
:1009E0000130D6005608D907DB2C302D83120313B3
:1009F0002F08831203178D00831603170C1483121C
:100A000003170C08F6007608F7008312031330086A
:100A100077060319102D0230F6007608AE000800A4
:100A2000AE0108002F08831203178D0083120313F1
:100A30003008831203178C00831603170C155530EA
:100A40008D00AA308D008C140C110330F60076084E
:100A500083120313AE000D1E08000D12AE01080034
:100A6000831203132E08013A0319F62C033A0319D3
:100A7000122D013A03192B2D3D2D0800831203136B
:100A8000D40103308A113E208A11FF3A031D4A2DFA
:100A90000030080083120313D5010D3055020318EE
:100AA000662D5508033A03195E2D55088A113E201C
:100AB0008A11F700770883120313D4070130F70077
:100AC0007708D5070D305502031C512D03308A11CC
:100AD0003E208A11831203135406031D832D073011
:100AE0008A113E208A110038031D812D04308A119D
:100AF0003E208A11003A03197F2D03300800003090
:100B000008000230080001300800831203138C1E15
:100B1000A82D831603133E08033A0319A42DBF0121
:100B20000230F0007008BE00831203131A08F000B0
:100B30008316031340088400700883138000400864
:100B4000013EF0007008C0008312031398181812B9
:100B50000C1E0800831603134A08013A031D0800FF
:100B6000530854020318C52D5408013ECA3E8400A0
:100B70008313000883120313990083160313540888
:100B8000013EF0007008D4000800D401D40ACA0164
:100B90000800831203139F1808001E08D301D3070F
:100BA000831603131E0883120313D201D207EC2D00
:100BB000C201C20AFA2D0230E02D1F159F15033025
:100BC000F6007608C200FA2D5308BB01BB07520895
:100BD000BA01BA07C201FA2D4208003A0319D82D0A
:100BE000013A0319DB2D033A0319DD2D013A0319EC
:100BF000E42DEA2D9F1408008B130B1D042E873063
:100C000081000B118B128B160C1C102E8A111623CF
:100C10008A11831203130C10B1308F00DF308E0065
:100C20008C1C152E8C10BF3091000C1B0C138B18D4
:100C30008B108C1E1E2E8A1185258A118312031398
:100C40000D1A0D128B177508FF0074088A007308BF
:100C50008400720E8300FE0E7E0E0900223487345B
:100C60002F3487342D348734253487342B3487341C
:100C70002834873400340034003400340034003425
:100C8000003400340034003400340134FF34FF34C5
:100C9000FF34FF34FF34FF34831203138C10F6014A
:100CA000F60A12088A11712083120313920012159A
:100CB00064308316031392008312031395011708FF
:100CC000CF39970017080C38970010308316031798
:100CD0009D00080083160313811101118114011472
:100CE0008112011287308312031381008B160B11BE
:100CF00090109011B1308F00DF308E0010148316E9
:100D000003130C14831203130C100B17080077083D
:100D100076040319080083120313D301E030530251
:100D200003189A2E0130D2005208D307E030530244
:100D3000031C922E7608FF3EF60077080318013E4A
:100D4000FF3EF700872E8312031340080319B02ECD
:100D50000230D3005308F60000308A11BA2608008A
:100D6000053083120313D3005308F60000308A11B4
:100D7000BA26080083120313D2000330520203186C
:100D800008007608F7005208433E84007708831372
:100D900080007608F7005208463E840077088000FD
:100DA000080083160313851205168515871207128E
:100DB0008711071387138613061386160612071169
:100DC00087140714051185140514080083160313EE
:100DD00018119B1118128312031398170C308316E5
:100DE00003139900831203131816831603138C162A
:0C0DF000981608003034303430340034E1
:100E0000FF1B0A2F83137F1883170008840A031916
:100E1000FF0A08007F087F398A000408840A031942
:100E2000FF0A8200003401340134003402340134FA
:100E30000034003401340134023400340534033406
:100E4000013400340F3407340034133409340034CF
:100E50000D3415340034053400340B3400341134AF
:100E60000034831203132908D200D3012A08D400C6
:100E7000D5015408D500D40152085404F800530891
:100E80005504F9003208D200D3013308D400D5014B
:100E90005408D500D40152085404F60053085504F0
:100EA000F70077087902031D572F76087802031898
:100EB0005B2FFB010800FB01FB0A08007C080319FB
:100EC00008000A307D02031C832FFD01FB08031D6F
:100ED000832FFF307906031D6F2FFF30780603192B
:100EE000832F7808013EF80079080318013E003E80
:100EF000F9007908F600760883120313AA0078082F
:100F0000F6007608A9007D08013EF6007608FD008F
:100F10000800713083120313DD005D08831603138C
:100F20008F048B130F1D922F8A11D1268A118A11DB
:100F3000CC278A118A116A268A118A11E6268A111B
:100F40008A114C268A118A1190208A1100308A1148
:100F5000A4248A118A1131270800831203135F0821
:100F6000FF005E0884008A1100278A1100380319E7
:100F70000800831203135F08FF005E0884008A11D3
:100F800000278A118A1100218A110130831203136C
:100F9000DE070318DF0AAD2F831203179E019F019E
:100FA0009E159E161E169E141E14831603131F08EC
:100FB0008F3930389F00831203131F139F170C13B0
:100FC0009F101F14831603130C13831203131F089F
:100FD000C3399F000800831603133F084902031C0E
:100FE000F72F3F08013EF6007608BF0008003E08D4
:100FF000023A031D08000330F6007608BE00080020
:02400E0004F0BC
:10420000FF340C346634FF3400340034003400349E
:08421000FF34FF34FF34FF34DA
:00000001FF
