:400000000080002011000000D7170000D717000008B5044B1A6803F53F5302331A6001F0DBFB00BFFA46004010B5054C237833B9044B13B10448AFF300800123237010BDC4
:40004000E881FF1F00000000E8640000084B10B51BB108480849AFF300800848036803B910BD074B002BFBD0BDE81040184700BF00000000E8640000EC81FF1F0881FF1FE9
:4000800000000000F8B50B4C0025274617F83520EE00012A07EB060307D15B782BB9636803B19847A3783E44737008340DB90125ECE7F8BDFC92FF1F08B500F0DFF8BDE840
:4000C000084001F0E5BD000010B51F4B1F4A197801200529907719D1597800240144C9B202291C70D07759700DD004290ED1997882F821000144C9B205295C7012BF997017
:400100009C7082F82200012182F82010104900220C460A70022A0FD00E4911F83200012807D101EBC201487818B148780138C0B248700132D2B2EDE722701A7801321A709F
:40014000BDE8104001F04EBD0482FF1F0C81FF1F1093FF1FFC92FF1F08B501F007FF084802F006F9074801F099FD01F019FD01F025FD01F003FDBDE8084001F07BBD00BF27
:40018000C9000000B900000080B516480023164A0360062BDEB21DD01449CC18A57F0F46012D14D1157851F8231051F8251051B194F824203B442A41D2071A7E48BF0160AD
:4001C00001321A7606E0052B117018BFA17701330132DEE70368002BD7D0054A16709847D3E700BF0C93FF1F2481FF1F0C81FF1F1093FF1F10B5041F54F8043F0BB1984722
:40020000FAE710BD01F0DABD08B9014B597070473881FF1F10B50D4C607808B9636803E0FF2804D163680120BDE8104018472378012B08D8A3689847B0FA80F063684009C4
:400240009847637800E0013B237010BD3881FF1F10B5094C23699847237B8342234606D1A27B032A01D1607301E0013200E000229A73187310BD00BF3881FF1F38B5224CEE
:400280002378013B042B3BD8DFE803F003280E283C0002F043F810F0020F1C4A24D113780133DBB2137015E002F038F810F0020F164D0BD0164B68781968AA78012301F007
:4002C000D5FF0423237000232B7038BD2B780133DBB22B70052B15D9052312E002F01EF810F00100094A03D000232370137038BD13780133DBB2052B137003D9207038BDC9
:400300000023237038BD00BF9C93FF1F0882FF1F5894FF1F2DE9F0410B4C804620780F46164600F0FF0558B902F010F84046394632462B4601F044FF01202070BDE8F081BF
:400340000020BDE8F08100BF9C93FF1F2DE9F0420E4D1F462B780646894614469BB901F0F5FF0B490B4B81F803904E701C608F70304603310122022301F022FF03232B702E
:400380000120BDE8F0820020BDE8F0829C93FF1F0882FF1F5894FF1F30B50478651C057021F81420027802F007020270881E00220E3130F9024F88422244FAD1D2101A606C
:4003C00030BD000010B50B4C4FF07C51A4EB600405F084FE214605F081FE214605F07EFE01464FF07F5005F06FFD0146204605F075FE10BDDF59375F2DE9F04FDFF8D4B2B3
:4004000099B001900291DBF80000DBF800100392089305F063FEDFF8C0921590DBF80000D9F8001005F05AFEA84C0C90DBF80000216805F053FEA64E0A90DBF80000316818
:4004400005F04CFE0F90D9F80000D9F8001005F045FE0B90D9F80000216805F03FFE8046D9F80000316805F039FE10902068216805F034FE05462068316805F02FFE044681
:400480003068316805F02AFE04900898014605F025FE06462298014605F020FE0146304605F014FD06462398014605F017FE0146304605F00BFDFFF785FF84462298614681
:4004C000CDF814C005F00AFEDDF814C0119061462398CDF85CC005F001FE12902498014605F0FCFD06462598014605F0F7FD0146304605F0EBFC06462698014605F0EEFD4F
:400500000146304605F0E2FCFFF75CFF06462498314605F0E3FD31460590259805F0DEFD31460690269805F0D9FD07900598014605F0CCFC0E900698014605F0C7FC0F993C
:400540000746404605F0C0FC13900798014605F0BDFC0A990646109805F0B8FC294614904FF07C5005F0B0FC049905F0ADFC01460E9805F0B3FD13998246384605F0AEFD62
:400580000146504605F0A2FC14998246304605F0A5FD0146504605F099FC0B9916904FF07C5005F091FC0F998246404605F08EFC01460E9805F092FD04998046504605F037
:4005C00083FC0146384605F089FD0146404605F07DFC0C998046204605F076FC0146304605F07CFD0146404605F070FC0A990F90109805F069FC0C990A90204605F066FC30
:40060000169A04461146104605F068FD0F9B80461946184605F062FD0146404605F056FC05F0E8F802F090F802460B4620462146CDE90C2305F04AFC0B990F90159805F06A
:4006400043FC294605F040FC049905F03FFCDDE90C2310901946104605F0E2FB014605F035FC8046284605F0C5F8CDE90C010E980A9905F033FD21460E90384605F02EFD8B
:400680000E9B0146184605F021FC29460746504605F01AFC0146304605F020FD0146384605F014FC014605F011FC13998246404605F014FD21460546504605F00FFD01460B
:4006C000284605F003FC14990E9007E02893FF1F9893FF1F2494FF1FD493FF1F404605F0FDFC05F087F8064650460F4605F082F804460B980D4605F07DF802460B460020F8
:40070000B04904F017FFDDE90C2304F013FF02460B462046294605F0C1F802460B463046394604F009FF05F07BFB10990B90119805F0D4FC0F990446129805F0CFFC014655
:40074000204605F0C1FB0B990446069805F0C6FC0E990546079805F0C1FC0146284605F0B3FB0146204605F0B1FB0021139005F049FE5D464C46002840F0C280DDF85CC076
:400780000898614605F0AAFC06460A98014605F09DFB0746404605F02DF8DDE90C23CDE908010020874904F0C5FE80460498894605F020F802460B464046494604F0BAFEB5
:4007C00002460B46DDE9080105F068F88046894650460A9905F082FC05F00CF802460B464046494604F0A8FE05F01AFB39468046129805F073FC10998146304605F06EFC18
:400800000146484605F060FB41468146079805F065FC0B998246059805F060FC0146504605F052FB0146484605F050FB0021814605F0E8FD002863D130460F9905F04EFC47
:4008400039460646119805F049FC0146304605F03BFB0E990646059805F040FC41460746069805F03BFC0146384605F02DFB0146304605F02BFB0021064605F0C3FD00287F
:400880003ED15149139805F029FC0146019805F01DFB4E490746139805F020FC002105F015FB0146384605F011FB47490190484605F014FC0146029805F008FB43490746EB
:4008C000484605F00BFC002105F000FB0146384605F0FCFA3C490290304605F0FFFB0146039805F0F3FA39490746304605F0F6FB002105F0EBFA0146384605F0E7FA039019
:40090000D5F800802068019900F1004005F0E6FB2F4F0299D7F800A08346504605F0DEFB0146584605F0D0FA2A4E0399D6F800908246484605F0D2FB0146504605F0C4FACE
:40094000224905F0CBFB0146404605F0BFFA2860D4F800800199286805F0C0FBD7F800B003998146584605F0B9FB0146484605F0ADFAD6F800A002998146504605F0AEFB8A
:400980000146484605F0A0FA104905F0A7FB0146404605F09BFA2060D7F800802868D4F800B0D6F800A0029905F098FB03998146584605F093FB0146484605F085FA0199B9
:4009C000814609E00000E03F00009040A69BC43C2893FF1F9893FF1F504605F07FFB0146484605F073FA3B4905F078FB0146404605F06CFA3860D6F800800399286805F09E
:400A00006DFBD4F800B002998146584605F066FB0146484605F05AFAD7F800A001998146504605F05BFB0146484605F04DFA294905F054FB0146404605F048FA30602868C2
:400A40002968D4F800C022683B68CDF80CC001930292D7F800B005F041FBDDF80CC0029A80461146604605F039FB0146404605F02DFA019B80465946184605F02FFB0146EC
:400A8000404605F023FAD6F800A0D6F8009080464946504605F022FB0146404605F016FAFFF790FC80462868414605F017FB28602068414605F012FB20603868414605F068
:400AC0000DFB38603068414605F008FB306019B0BDE8F08FA69BC43C0C4B0D4A19880D4B12881B685B1A5343D9130B4BB3F900200A4BD202B3F900300B4492FBF3F3084A8B
:400B00000B44136008331B11036070472093FF1F3E93FF1F3893FF1F3094FF1F1C93FF1F7893FF1F284BF0B51C68284BA4F57A64B3F90050264B04FB04F7B3F900303F13D6
:400B400004FB03F2234BB3F900307B431B1403EB6233214A023316884CF250329B1003F500437343DE0B1D4B2A41B3F900101C4BB3F900305F431B4BB3F900305C43E412F9
:400B8000194B04EBE72404EB8101A9401C680231A4EBA1014A434EBFB2FBF6F35100B1FBF6F340F6DE3148BF5B001A1252434A430E495943091401EB224202F6CF6203EB13
:400BC00022130360F0BD00BF7893FF1F3C93FF1FDA93FF1F2894FF1F8093FF1F1E93FF1FDC93FF1FD893FF1F2C94FF1F43E3FFFFF8B5AF4D2B78013B112B00F20C82DFE853
:400C000013F0350041000A02EC00F70012000A0291019A01A401B101BA01C4010A029E002A00A800B300A34CA34B2178682003EB41010222FFF76EFB002800F0EC8123782A
:400C40000133DBB2052B237040F2E58110232B7000232370F8BD68203721984A0123FFF775FB002800F0D7810123BCE1924B6820997B934A0E23FFF769FB002800F0CB815D
:400C80000223B0E18F4B1B7803F0FF06002B40F0C2818B4B8C4C197A5A7A987A42EA0122D97AE28041EA00212181197B5B7B874843EA01236381811C12B204F10C03FFF799
:400CC0006BFB8348B4F90820811C04F11003FFF763FB8048B4F90A20811C04F11403FFF75BFBE368218B628B591A2369A78B9A1A63697948DB1B89B292B29BB20180428006
:400D00008380206A09B20144606A12B20244694FA06A1BB20344387821621E286262A36204D8012318442B703870F8BD5B1149115211A3833E70218362830F2353E10C20CE
:400D400066490222FFF7E6FA002800F06481112349E10C200321624A0723FFF7F7FA002800F0598112233EE1564B1B78002B40F052815B4B544C59781A785A4842EA012220
:400D80002281D9789A7842EA012259791B79E28043EA01235B42811C638112B204F10C03FFF7FAFA5048B4F90820811C04F11003FFF7F2FA4D48B4F90A2004F11403811CEC
:400DC000FFF7EAFAE3680122A3852369E38563692386474B1A80042305E17720AA21454A1623FFF7B3FA002800F015810523FAE0344B1B78002B40F00E81334B93F832101D
:400E000093F8332042EA01223B490A8093F8341093F8352042EA012238490A8093F8361093F8372042EA012235490A8093F8381093F8392042EA012232490A8093F83A1084
:400E400093F83B2042EA01222F490A8093F83C1093F83D2042EA01222C490A8093F83E1093F83F2042EA012229490A8093F8401093F8412042EA012226490A8093F8421034
:400E800093F8432042EA012223490A8093F8441093F8452042EA012220490A8093F8462093F8473043EA02231D4A13809AE000BFE593FF1FE493FF1F4C81FF1F0C82FF1FB4
:400EC0008293FF1F9C93FF1F0882FF1F9E93FF1FB093FF1FC293FF1F9093FF1F6881FF1FE793FF1FEE93FF1F0094FF1F1294FF1F3C93FF1F3A82FF1F1E93FF1FD893FF1F93
:400F0000DA93FF1F8093FF1F3E93FF1F2093FF1F2894FF1FDC93FF1F9693FF1F3094FF1F1C93FF1F77203C490222FFF7F3F9002871D0092357E07720F621384A0223FFF79F
:400F400005FA002867D00A234DE0354B1B78002B61D1324A11785378324A03EB012313600B2340E0772030490222FFF7D3F9002851D00C2337E07720F6212C4A0323FFF765
:400F8000E5F9002847D00D232DE0254B1B7803F0FF04002B3FD1214A254E1379D1781B02527903EB01431344224A3046B2F90020C2F108021341204A1360FFF7B3FD1F48D7
:400FC000FFF78AFD1E4A13781046042B0DD8012B82BF1C4932688C6C03F1010384BF12198A64037008232B70F8BD164B03219B6C147093FBF1F3144933608B62134B4FF075
:401000007E511960124900230B6012490B6012490B6007232B70F8BD7081FF1F1593FF1F9C93FF1F3893FF1F7281FF1F1893FF1F7C93FF1F3C93FF1F2C94FF1FE093FF1F0B
:40104000E493FF1F0882FF1F4C81FF1F2494FF1FD493FF1F2893FF1F9893FF1F0000000038B50446084604F0E5FF134B0546986A04F0E0FF0146284605F0E4F804F0BAFBC1
:4010800009A3D3E9002301F0E7F902460B4600200A4904F04FFA06A3D3E9002304F0FEFB04F096FE206038BD00000020C05BC83F000000001AE950414C81FF1F0000F03F29
:4010C00030B50478651C057041F82420027802F0070202700022081F1A601C3150F8042F1C68884222441A60F8D1D2101A6030BD2DE9F04F8A4D8FB02B78013B112B00F2F2
:40110000EE82DFE813F01E00EC02EC02EC02EC02EC02EC02D400DE00E900F700010137011200EC02EC028A0095007E4B6820997B7D4A0E23FFF70AF9002800F0D082012306
:4011400069E07A4B1B78002B40F0C982764E784C73783278B17843EA0222F378754843EA0123238131797379E28043EA01236381811C12B204F10C03FFF70EF96E48B4F982
:401180000820811C04F11003FFF706F96B48B4F90A20811C04F11403FFF7FEF8E368327AA4F84C302369B17AA4F84E3063696448A4F85030737A43EA0222F37AE28043EAA0
:4011C00001232381317B737B12B243EA01236381811C04F10C03FFF7DFF85A48B4F90820811C04F11003FFF7D7F85748B4F90A20811C04F11403FFF7CFF8218BE268534BD5
:40120000521A1A80618B2269521A5A80A18B6269521A9A8011232B7061E20C2000214C4A0123FFF793F8002800F059821223F2E73E4B1B78002B40F05282454B3C4C59789F
:401240001A78444842EA01222281D9789A7842EA012259791B79E28043EA01235B42811C638112B204F10C03FFF796F83A48B4F90820811C04F11003FFF78EF83748B4F985
:401280000A2004F11403811CFFF786F8A28DE3689B1AA4F85230E28D23699B1AA4F85430228E63699B1AA4F856300823B3E777202B490222FFF72EF8002800F01082092391
:4012C000A9E77720F621274A0223FFF73FF8002800F005820A239EE7144B1B78002B40F0FE81204A117853781F4A03EB012313600B2390E777201D490222FFF70BF800283D
:4013000000F0ED810C2386E77720F621184A0323FFF71CF8002800F0E2810D237BE700BF1493FF1F4C81FF1F8293FF1F9C93FF1F0882FF1F4093FF1F5293FF1F6493FF1FC6
:401340009E93FF1FB093FF1FC293FF1F9093FF1FE793FF1FEE93FF1F0094FF1F1294FF1F7081FF1F1593FF1F3893FF1F7281FF1F1893FF1FC04B1B78002B40F0B081BF4A91
:40138000BF4C1379D1781B02527903EB01431344BC4A0BA8B2F90020BB4EC2F10802D340BA4ABB4D1360FFF7BDFB04F1580004F15C010B9AB74BFFF783FE0CA80B99FFF747
:4013C0004FFE04F1800104F17C000C9AB24BFFF777FE0DA8FFF780FB04F1A00004F1A4010D9AAE4BFFF76CFEB6F9000004F0F0F99BA3D3E9002304F07BFB04F011FD2860B9
:401400000790B6F9020004F0E3F995A3D3E9002304F06EFB04F004FD83466860B6F9040004F0D6F98EA3D3E9002304F061FB04F0F7FC8246A860B4F94C0004F0FBFDE860E0
:401440000690B4F94E0004F0F5FD81462861B4F9500004F0EFFD80466861B4F9520004F0E9FD0746A861B4F9540004F0E3FD0646E861B4F9560004F0DDFDDDF81CC00446D4
:401480002862604604F0B6F977A3D3E9002304F005FA04F0C5FC0546584604F0ABF972A3D3E9002304F0FAF904F0BAFC8346504604F0A0F96CA3D3E9002304F0EFF904F008
:4014C000AFFCDFF8ECA102462846754D069B5946CDF80090CDF80480029703960494FEF78BFFDAF800002E684FF0404104F0F6FD314604F0F3FD6B4F6B4CD7F80090D4F838
:40150000008006464946484604F0E0FC414604F0E5FD0146304604F0D9FC04F06BF900F045FF53A3D3E9002304F0B8F904F078FC5E4E70602068D5F80080D7F800C0DAF8EF
:401540000090DAF80020DAF80030D4F800B007932368014606930892CDF824C004F0B6FC414604F0BBFDDDF824C080466146604604F0ACFC494604F0B1FD0146404604F0F0
:40158000A5FC04F037F9089A8046894610464FF0404104F0A3FD079B194604F09FFD59460790584604F092FC069904F097FD079B0146184604F088FC4FF07E5104F086FC34
:4015C00004F018F902460B464046494600F042FF27A3D3E9002304F061F904F021FCB060DAF8000022683B684FF040410693079204F074FD079AD5F800B0114604F06EFDC5
:40160000069BD4F800A0194627680446184604F05DFC594604F062FD0146204604F054FC04F0E8F8D5F800900446D5F8008050460D46514604F04AFC394604F04FFD494607
:401640000746484604F042FC414604F047FD0146384604F03BFC4FF07E512BE0AFF300806666666666664040EC51B81E85EB913F6666666666A64C409C93FF1F1593FF1FF9
:401680000882FF1F3C93FF1F9093FF1F2C94FF1F3494FF1F7C93FF1F2493FF1FE093FF1F9893FF1F2494FF1F2893FF1F2C93FF1FD493FF1F04F008FC04F09CF802460B468A
:4016C0002046294600F0C6FE07A3D3E9002304F0E5F804F0A5FB064B0E2230601A700FB0BDE8F08FAFF300806666666666A64C401493FF1FAFF30080012808D002D30228BC
:401700000BD07047084B1A7862B9062203E0074B1A783AB90E221A707047044A00231370014A1370704700BFE593FF1F1493FF1F014B1878704700BFE593FF1F08B502F09A
:4017400075FF024B01221A7208BD00BF5C94FF1F10B500F023FE90B90D4C2378042B16D80133DBB2042B237011D10A4B1B7A73B902F05AFEFFF7E2FF0A23237010BD054BBE
:401780001A7A012A01BF024900220A701A7210BDCC82FF1F5C94FF1F08B50448FEF72AFD62B6FEF7F1FC002008BD00BF2465000008B5FFF7BDFF08B9FFF79EFFFFF7B8FF34
:4017C000072802D10120FFF797FFBDE8084000200221FEF719BDFEE708B51148114AC8B1A2F1100132C9234604391E1BAE4204D051F8046F43F8046BF7E71D4652F8041C1D
:401800005C1B8C4203D0002443F8044BF8E701381032E4E704F02EFEFFF7BEFFFEE700BF01000000AC66000008B5114A114B1A60114A136843F4007313600023032B98BFAA
:401840000E4A4FEA830094BF52F823100C490D4A0133302B1150F1D10B4B19780B4B19700B4B1A6000F018F80A4B00221A6008BD0004FA050CED00E014ED00E0000000001D
:40188000D71700000080FF1FBC7600400481FF1F08ED00E00081FF1FF8B572B6794A0024137843F004031370774A062303FB0423002118689A88013404F00DFE0B2CF3D10E
:4018C00072498022724804F0FBFD72487249802204F0F6FD7148002450F8041F04F1105303F1440221F0FF054533C9B20B4452005B0002329A4205D012F8026C12F8017C25
:40190000AF55F6E7664B0C449842E5D1654B20221A70654A654C1378654D43F002031370137C43F2C82643F0020313742378A2F5863243F040032370413A137843F01003B1
:4019400013705C4B03CBC2F8400DC2F8441D93E8070003C5584B2A80584AA5F58A5507CA03C31A80564A574BA2F5606203CBC2F8000EC2F8041E1378582143F00803137098
:40198000514B61221A70514A0023138091705049192218200A808870EF212980A8704D4801804D490A704D4A13804D4B1B221A70262283F86E2243F21332A3F880210522EE
:4019C00083F87E2193F87E2103F5BF731D462B781B0605D54FF4F07000F076F9013EF6D1404B52221A70404B404A1B781926DBB213703F4B4FF4E1621A8041F2512200257B
:401A000023F8022C3B4B4FF4F0701B7803F0010343EA450500F058F9013E05F0030530D0032DEFD1344A4FF480731380334907231370482000230B70887013705371304B96
:401A400002221A702F4A304D137843F01F0313701D4B81221A7003F5F723012204331A702A4B2B4A1B78DBB203F007011B0911705370284B44221A7094E80F0007C52B8002
:401A8000F8BDFEE7E846004030650000EC06004800080140800A01406C070048FCFFFF47840000481260004003500140A0430040C0510040EC070048F051004000080048AD
:401AC000225100400C0800480048004080400040844000408C4000408E4000409040004092400040004200400F010049A146004022420040254200400440004006400040B8
:401B000001400040A2430040B0430040CF0100496E58004076580040144A137803F001031370937803F0FC039370114B1A7802F0CF021A701A7842F030021A701A7802F0FD
:401B4000F0021A701A7842F00F021A70094A137843F00103137040F2E733A2F80330A2F80530054B08221A70704700BF004F00400B4F0040014F0040034F0040074A137869
:401B800043F001031370137C43F00103137492F85D3B43F0010382F85D3B7047A343004010B5054C23781BB9FFF7B6FF01232370BDE81040FFF7E2BFCD82FF1F084A137819
:401BC000A2F65D3203F0FE0382F85D3B137803F0FE031370137C03F0FE031374704700BF004F0040014B1878704700BF034F0040134A137803F001031370937803F0FC0364
:401C00009370104B1A7802F0CF021A701A7842F030021A701A7802F0F0021A701A7842F00F021A70084A137843F0010313706323A2F80330A2F80530044B08221A70704715
:401C40000C4F0040174F00400D4F00400F4F0040074A137843F002031370137C43F00203137492F8693B43F0010382F8693B7047A343004010B5054C23781BB9FFF7B8FF72
:401C800001232370BDE81040FFF7E2BFCE82FF1F014B1878704700BF0F4F0040074A4FF48023136002F688321268E021C2F88800034A1170A2F212321360704780E100E059
:401CC00012E400E0000000000230800803D000BF01380046FCD17047EFF3108072B6704780F31088704700BF054A00F01F00126800F1100352F8230042F82310704700BFC1
:401D000008ED00E000F01F0000F16040490100F56440C9B20170704708B510490020FFF7E3FF00200721FFF7EDFF0D4B72221A702022A3F580731A700A490120FFF7D4FF66
:401D400001200721FFF7DEFF074B07221A7048221A74022283F8602108BD00BFD91D00008A650040491E00002B64004010B5FFF7B3FF04460E4A0F491378A2F5807243F09D
:401D8000200382F80031137843F0100313700A4A012313600B7843F010030B700223136000F078F82046BDE81040FFF799BF00BF9A6500409B65004000E100E010B5054C1C
:401DC00023781BB9FFF7A8FF01232370BDE81040FFF7CCBFCF82FF1F144A10B510461378DBB29B0621D5124B12491A780978124CD2B2C9B2A15411490A7812B1104A0124D8
:401E000014701A780132D2B21A701A781F2A82BF074A002414701A780A4B1B789A4204BF01230B700378DBB2DBE710BD6A640040D182FF1F496500409094FF1FD282FF1FC6
:401E4000D382FF1FD082FF1F0D4B0E491A780978914214D00C4A127812F004020FD119781F2988BF1A701A780849D2B28A5C0849D2B20A701A780132D2B21A70E4E77047A3
:401E8000D482FF1FD582FF1F6B6500407094FF1F48650040044A137843F002031370137C43F0020313747047A2430040024B1878C0F38000704700BF21510040044A400096
:401EC000137800F0020003F0FD0303431370704720510040024B1878C0F34000704700BF21510040114B022210B51A70812203F80E2C082203F80C2C00240D225A719C711A
:401F00000B4B4FF400421A600F200721FFF7FAFE0F200849FFF7E8FE074B10221A70074B1C70074B1C70074B1C7010BDD649004080E100E0951F0000B094FF1FB694FF1F18
:401F4000B894FF1FB494FF1F08B5FFF7C5FE064A137843F004031370137C43F004031374BDE80840FFF7BCBEA543004010B5074C23781BB9FFF7B6FF01232370FFF7E4FFEC
:401F8000034B4FF400421A6010BD00BFD782FF1F00E100E070B57C487C4A13780178DBB211F0400F014600F0E880D80740F1D18008784538052800F2CC80DFE810F006004B
:401FC0005800CA00CA0006009A0003F0DF0003F00A03082B24D10C786B4B452C1BD16C4C247864B16B4C6C4D24682478E4B22C7004241470694A0124147046220EE0684C7F
:402000002478A60728D5674C227842F00A02227060221A701BE0002414704A221A7097E00A2B40F095805F4B1C7844F0A0041C705B4C2478A5070FD50A781C7812F0080F03
:4020400014BF09220A2222431A7060230B70564B4FF400421A607BE0544C237843F010032370534B10241C700423137070E09C0726D44A48464C05782478A5420DD2454DB0
:4020800004782D68E4B22C5D434DE4B22C700424147002780132D2B229E041480078800704D54048027842F00A0242E03F4C207840F0100020703E481024047004202BE035
:4020C0003748007810F0020F364803D0027842F09A022EE0354D2C7844F010042C70344C1025257004241470027842F0900202702FE0304D304C2E68274D20782D78C0B2C0
:40210000EDB2355420780130C0B220702B4824780078844202D2102010701AE02048007800F0020000F0FF0558B11E48027842F00902027060220A701B4A4FF4004010602F
:4021400007E01A4C207840F010002070157000E003469A0616D50B78124A13F0080F107814BF0123022303431370104A137803F0EF03137010230B7070BD0378DB065CBF6C
:402180001023037070BD00BFB094FF1FD7490040B794FF1FBC94FF1FD8490040B494FF1FB594FF1FB694FF1F80E100E0D6490040D9490040C094FF1FB894FF1FC494FF1F0A
:4021C00070B5B1B11E4C2578102D05D11D4D2D782D0710D5012070BD2578602D09D11A4D4FF400462E60194E357805F0F705357001E0022070BD45252570154C0025257052
:40220000144C40002270144AC0B21160134A0F4913700A7813F0010F02F0FD020A70104A084B107004D012221A7004220D4B00E001221A700C4B4FF400421A60002070BD86
:40224000B094FF1FD949004080E200E0B694FF1FB494FF1FB794FF1FBC94FF1FB594FF1FD8490040D749004000E100E070B5B1B11F4C2578102D05D11E4D2D782D0710D5FF
:40228000012070BD2578602D09D11B4D4FF400462E601A4E357805F0F705357001E0022070BD49252570164C00252570154C40002270154A40F001001160144A0F491370E6
:4022C0000A78C0B202F0FE020A70114A13F0010F1070084B04D012221A7004220D4B00E001221A700C4B4FF400421A60002070BDB094FF1FD949004080E200E0B694FF1F8F
:40230000B894FF1FC494FF1FC094FF1FB594FF1FD8490040D749004000E100E0074A4FF400431360064A1078064AC0B212785206054A48BF40F004001360704780E100E0A7
:40234000B694FF1FB094FF1F00E100E0054A4FF400431360044A002110781170034A1360704700BF80E100E0B694FF1F00E100E0084A4FF40033136002F688321268E0210A
:40238000C2F88400044A11706FF444710A441360704700BF80E100E011E400E0024B1878C0F38000704700BFF15100402DE9F0418AB006460F4600F01FFADFF89480044643
:4023C00098F900300D46013304D03046394601F0DDFC20B9204629460AB0BDE8F0813046394601F0C9FC0022164B03F0E7FC0028F0D015490023012214480893CDE90467DC
:40240000CDE902670191009201F0EEFC98F90030CDE90601022B0AD0684601F0E3FC30B1089B4BB9DDE906010AB0BDE8F08104F01BF821230360F3E704F016F8089B0360C6
:40244000F0E700BF0000F03F74650000786500007881FF1F00F000BC2DE9F04F8BB01F4680468946164600F0D3FCDFF8D8A204469AF900300D46013304D03046394601F0DA
:4024800085FC20B9204629460BB0BDE8F08F4046494601F07BFC834660BB304639460022002303F063FC0028ECD09AF900309E4C01229E4900208DE814005A1CCDF820B0D2
:4024C000CDE90289CDE90467CDE906010DD0022B0BD0684601F086FC002800F09380089B1BB103F0C1FF089B0360DDE906010BB0BDE8F08F404649460022002303F036FC39
:40250000F8B1304639460022002303F02FFC834600284ED084489AF900300121002200240025CDE90289CDE90467CDE90645019000910892002BCCD07C4B0022CDE90623C1
:40254000D3E72046294601F01BFC834600285ED0204629460022002303F008FC002891D04046494601F00CFC00288BD03046394601F006FC002885D09AF900306A4804217B
:40258000002200240025022BCDE90289CDE90467CDE9064501900091089200F08880684601F020FC002800F08280089B002B9CD097E73046394601F0E3FB00283FF462AFAF
:4025C000304639460022002303F0DAFB00283FF459AF55499AF800300122CDF820B0CDE90289CDE9046701910092002B3CD050490020022BCDE9060130D103F035FF212392
:402600000360D2E703F030FF2123036067E74046494601F0B5FB00289AD03046394601F0AFFB002894D02046294601F0AFFB00BB3D4A9AF8004001230890CDE90289CDE9CC
:402640000467019200937CB10020002102460B4603F04EFA022CCDE90601CED0684601F0C1FB0028A1D1C8E700220023CDE90623F4E72D499AF900300322CDF820B0CDE9B2
:402680000289CDE9046701910092ABB9294D4FF060444046494600220023CDE9064503F06FFB50BB9AF90030022B7FF478AF03F0DBFE2223036078E71F4D002440464946C8
:4026C00000220023CDE9064503F05AFB0028E9D000221A4B3046394603F0E0F804460D4601F088FB22462B4603F040FB0028D9D10F4B0022CDE90623D4E700220F4B304632
:40270000394603F0CBF804460D4601F073FB22462B4603F02BFB0028C4D1094B4FF06042CDE90623BEE700BF7C6500000000F03F0000F0FFFFFFEF470000F07F0000E03F80
:40274000FFFFEFC77881FF1F2DE9F0478AB006460F4601F0ADF8DFF898A004469AF900300D4601330FD03046394601F00FFB50B14FF000084FF000093046394642464B46C0
:4027800003F0FEFA20B9204629460AB0BDE8F08716499AF8004001220023CDE90467CDE9026701910092089364B9CDE90689684601F018FB80B1089B9BB9DDE906010AB071
:4027C000BDE8F0874046494642464B4603F090F9022CCDE90601EAD103F046FE21230360E9E703F041FE089B0360E6E7806500007881FF1F000000002DE9F047C04B21F055
:4028000000469E4286B00D468A46044613DD034606F1404606F58016334322D002460B4602F088FE02460B4603F062F90446204606B0BDE8F087B34B9E422BDCB6F1795F42
:4028400080F2688192A3D3E9002302F075FE0022AD4B03F0B3FAE8B12946204606B0BDE8F0878DA3D3E9002303F018F88CA3D3E9002306460F462046294603F00FF80246B2
:402880000B463046394602F057FE0446204606B0BDE8F0872046294601F06EFA02460B460020994902F046FE0022984B02F0F6FF7DA3D3E9002304460D4602F0EFFF7CA383
:4028C000D3E9002302F038FE22462B4602F0E6FF79A3D3E9002302F02DFE22462B4602F0DDFF77A3D3E9002302F026FE22462B4602F0D4FF74A3D3E9002302F01BFE22464C
:402900002B4602F0CBFF72A3D3E9002302F014FE22462B4602F0C2FF6FA3D3E90023CDE900012046294602F0B9FF6DA3D3E9002302F000FE22462B4602F0B0FF6AA3D3E99D
:40294000002302F0F9FD22462B4602F0A7FF68A3D3E9002302F0EEFD22462B4602F09EFF694B002202F0E8FDCDE902012046294600F09EFF664B80469E42894664DC024636
:402980000B460F4602F0D8FDDDE90223CDE90401DDE9000103F0ACF802460B46DDE9040102F07CFF0026CDE9000132464B463046494602F073FF02460B462046294602F026
:4029C000B9FD324604460D464B464046494602F0B3FD02460B462046294603F089F802460B4602F0A9FD02460B462DA1D1E9000102F0A0FD02460B46DDE9000102F09AFD17
:402A0000324604460D463B463046494602F094FD02460B4638A1D1E9000102F08BFD02460B462046294602F085FD02460B4632A1D1E9000102F07EFD0446BAF1000F3FF721
:402A4000F6AE01F10041F2E6DDE90223DDE9000103F04EF802460B464046494602F01EFF42464B4602F068FD02460B4602F064FD0BA3D3E9002302F05DFD02460B4606A18A
:402A8000D1E9000102F056FD0446D6E7AFF300809C7500883CE4377E182D4454FB21F93F075C143326A6913C09F7FD0DE13D023F88B20175E0EF493F3B8F68B52882A43F27
:402AC0005544880E55C1C93F7D6FEB0312D6D43F555555555555C53F82922EB1C5B8B33F59018D1B6C06E63FC88A599CE52A00404B2D8A1C273A0340182D4454FB21E93F3E
:402B0000FFFFEF3FFFFFDF3F0000F03F0000E03F3233EF3F02460B4602F0C0FE38A3D3E9002306460F4602F0B9FE37A3D3E9002302F002FD32463B4602F0B0FE34A3D3E949
:402B4000002302F0F7FC32463B4602F0A7FE32A3D3E9002302F0F0FC32463B4602F09EFE2FA3D3E9002302F0E5FC32463B4602F095FE2DA3D3E9002302F0DEFC32463B462E
:402B800002F08CFE2AA3D3E90023804689463046394602F083FE28A3D3E9002302F0CAFC32463B4602F07AFE25A3D3E9002302F0C3FC32463B4602F071FE23A3D3E90023D4
:402BC00002F0B8FC32463B4602F068FE0022204B02F0B2FC02460B464046494602F088FF02460B462046294602F058FE22462B4602F0A2FC0446204606B0BDE8F08700BF2A
:402C000009F7FD0DE13D023F88B20175E0EF493F3B8F68B52882A43F5544880E55C1C93F7D6FEB0312D6D43F555555555555C53F82922EB1C5B8B33F59018D1B6C06E63F91
:402C4000C88A599CE52A00404B2D8A1C273A03400000F03FAFF300802DE9F84F5442144323F00049DFF878C149EAD474644517469E4606460D4641D84442044321F0004BAF
:402C80004BEAD47464458A4638D803F1404404F58014144349D09C1704F0020444EAD1745BEA000132D059EA070138D04C49894548D04B498B4532D0C9EB0B094FEA29597A
:402CC000B9F13C0F3ADCBEF1000F64DB3046294602F00EFF01F050F800F0B2FE012C57D0022C48D084B138A3D3E9002302F022FC37A3D3E9002302F01DFC05E01046194618
:402D000032462B4602F018FCBDE8F88F032CCAD8DFE804F01212020F32483349F4E7BAF1000F304825DB3149EEE7BDE8F84F00F087BE2C482E49E7E72946E5E726A1D1E9CF
:402D40000001CBE7CB452CD0032CB2D801A151F824F000BF652D00006B2D0000192D0000332D000000200146CEE700204FF00041CAE72049C8E714A3D3E9002302F0DAFB6B
:402D800002460B4612A1D1E9000102F0D3FBBBE701F10041B8E719F13C0F97DA002000219CE7032CBBD8DFE804F0020B08050D481149A9E711481249A6E710481149A3E7FB
:402DC00008481149A0E700BF075C143326A6A13C182D4454FB210940182D4454FB21F93F0000F07F182D4454FB210940FB21F93FFB2109C0FB21F9BFFB21E93FD221337F76
:402E00007CD902C07CD90240FB21E9BFAFF300802DE9F04F144623F00047024657EA04000E468FB01D469C46214634D06E4B26F0004A9A459346B14626DC24D09F4223DC87
:402E4000694B9F4200F08F80B9F1000FC0F28F804FF0000879BB644B9F4200F0A580634B9F4267D0BCF1804F00F0E283604B9C4521D1B9F1000F1EDB104631460FB0BDE82C
:402E8000F04F00F015BD62B10AF1404000F5801050EA0B0007D10346544918460FB0BDE8F08F5745CCDD53480FB0BDE8F04F00F09BBF4FF0000810463146CDF808C00092BA
:402EC00000F05AFF009ADDF808C0BBF1000F20D04FEAD97909F1FF3958EA09037AD0464B9F4240F38F8003F104739F4240F31084424B9A4540F39283BCF1000F40F39283D3
:402F000037A1D1E900010B46024602F0C7FC0346C3E7BAF1000F04D0344B29F0404E9E45D6D1BCF1000FC0F2B683B9F1000F08DB0346B2E7BCF1000FC0F252841346314646
:402F4000ABE70AF1404A0AF5801A58EA0A0340F05E8402460B4602F0EDFA0B46024602F0C7FD034699E700293FF46EAF8CE7244B9F422CDCA3F154739F427FF769AF40F276
:402F800013403B15834240F34B84C3F58663033321FA03F000FA03F38B427FF459AF00F00100C0F1020855E70AF1404303F5801353EA0B0300F03983104B9A4540F364834E
:402FC000BCF1000FC0F22E832346294665E74FF002083FE7104631463346BCE7AFF300809C7500883CE4377E0000F07F0000F03F0000E03F786500000000E041FFFFEF3FBF
:40300000FFFF3F43BAF5801F4FF0000205DACA4B02F044FC8A466FF034024FEA2A53C74ECAF3130AA3F2FF334AF07F571344B2450C9347F4401740F3D083C14B9A4540F357
:4030400007840026B4460C9BA7F5801701330C933946BC4B4FEACC0C6344D3E900AB52465B46CDF834C0CDE9060102F063FA52465B46CDE90801DDE9060102F05DFA0246FF
:403080000B460020B04902F033FD02460B46DDE90801CDE90A2302F001FC02460B46CDE90223CDE904237B1043F0005303F5002399190020002306460F460293DDE90223B7
:4030C0001046194632463B46CDE9000102F0E6FB02460B46DDE9080102F02CFA5246CDE908015B463046394602F024FA02460B46DDE9060102F01EFA02460B46DDE900014B
:4031000002F0CCFB02460B46DDE9080102F012FADDE90A2302F0C2FBDDE90423CDE906011046194602F0BAFB02460B4606460F4602F0B4FB6EA3D3E9002382468B463046EE
:40314000394602F0ABFB6CA3D3E9002302F0F4F932463B4602F0A2FB69A3D3E9002302F0EBF932463B4602F099FB67A3D3E9002302F0E2F932463B4602F090FB64A3D3E9B4
:40318000002302F0D9F932463B4602F087FB62A3D3E9002302F0D0F902460B465046594602F07CFBDDE9042306460F46DDE9000102F0C2F9DDE9062302F070FB32463B469E
:4031C00002F0BAF9DDE9006782468B4632463B463046394602F062FB00225C4BCDE9080102F0AAF952465B4602F0A6F902980F460646DDE9000132463B4602F04FFB324691
:403200003B46CDE90001DDE9060102F047FB0022CDE906014D4B3046394602F08BF9DDE9082302F087F902460B465046594602F081F9DDE9042302F031FB02460B46DDE96C
:40324000060102F079F982468B46DDE9000152465B4602F071F932A3D3E9002302980F46064602F01BFB30A3D3E90023CDE904013046394602F012FBDDE90023CDE90601F0
:403280003046394602F056F902460B465046594602F050F926A3D3E9002302F0FFFA02460B46DDE9060102F047F9DDF834C0284BCDF818C06344D3E9002302F03DF9CDE967
:4032C00000010C9802F084FA06460F46DDE90401204BDDF818C09C44DDE90023DCE900AB02F02AF952465B4636E000BFAFF30080EF4E454A287ECA3F65DBC9934A86CD3FC4
:4033000001411DA96074D13F4D268F515555D53FFFAB6FDBB66DDB3F033333333333E33F000000E009C7EE3FF5015B14E02F3EBEFD033ADC09C7EE3F000040438E9803002F
:4033400079B60B00A86500000000F03F000008409865000088650000CDE906AB02F0ECF832463B4602F0E8F8029832463B4682468B4602F0DFF8DDE9062302F0DBF8DDE92E
:40338000042302F0D7F802460B46DDE9000102F0D1F8CDE9020108F1FF3858EA09030CBFD54BD64B0022CDE904230023CDE900450093DDE90067204632463B46294602F02A
:4033C000B9F852465B4602F069FADDE90223804689462046294602F061FA02460B464046494602F0A9F804460D465246304639465B46CDE9024502F051FA06460F4620469F
:403400003B462946324602F097F8BD4B824699428946884640F3138101F13F4303F5E003034340F0E581A0A3D3E90023DDE9020102F082F8324604460D463B465046494657
:4034400002F078F802460B462046294602F0B6FC002840F0CD814C462015A0F2FE304FF4801101414144C1F30A50A64CA0F2FF35C1F3130BC0F5826003302C414BF4801B67
:4034800021EA040300224BFA00FB3946304602F051F806460F46DDE902018BEAE87B0BEBD87B32463B464FEA0B5A02F045F880A3D3E90023002420460D4602F0EFF93246E6
:4034C000804689463B462046294602F033F802460B46DDE9020102F02DF877A3D3E9002302F0DCF976A3D3E9002306460F462046294602F0D3F902460B463046394602F0DF
:403500001BF806460F4632463B464046494602F013F842464B4604460D4602F00BF802460B463046394602F005F82246804689462B462046294602F0B1F963A3D3E90023E0
:4035400006460F4602F0AAF961A3D3E9002301F0F1FF32463B4602F0A1F95FA3D3E9002301F0EAFF32463B4602F098F95CA3D3E9002301F0DFFF32463B4602F08FF95AA378
:40358000D3E9002301F0D8FF32463B4602F086F902460B462046294601F0CCFF06460F4632463B462046294602F078F90022CDE900014FF080433046394601F0BBFF02463B
:4035C0000B46DDE9000102F093FA424606460F464B462046294602F061F942464B4601F0ABFF02460B463046394601F0A3FF22462B4601F09FFF02460B4600203F4901F0EA
:4036000099FF8A44BAF5801F0246C0F227815346DDE9040102F042F903463EE4BCF1000FFFF66EAC0023194637E40B46334934E433461046314602F031F903462DE4324BB2
:4036400021F000449C4240F3FA80304B0B4403430CD132463B4601F06DFF02460B46DDE9020102F097FB00283FF4F6AE20A3D3E90023DDE9040102F011F91DA3D3E900233A
:4036800002F00CF9034608E4BCF1000FCADA234605F1004101E402460B460020174902F027FA42E4AFF30080FE822B654715973C00000000432EE63FEF39FAFE422EE63FFB
:4036C000396CA80C615C20BED0A4BE726937663EF16BD2C541BDBB3E2CDE25AF6A56113F93BDBE166CC1663F3E5555555555C53F59F3F8C21F6EA5010000F0BF0000F03F1E
:40370000FFFF8F40FFFF0F00FFCB904000346F3F634B9A4582DD634B9A453FF7EDAB0022604B01F007FF54A3D3E9002306460F4602F0B4F852A3D3E90023CDE90001304612
:40374000394602F0ABF83246CDE902013B463046394602F0A3F8002282468B4630463946514B02F09BF802460B4647A1D1E9000101F0E0FE32463B4602F090F802460B4619
:4037800000204A4901F0D6FE02460B465046594602F084F83EA3D3E9002302F07FF802460B46DDE9020101F0C5FE06460F46DDE9000132463B4601F0BFFEDDE900230020FE
:4037C00082468B4601F0B6FE02460B463046394601F0B0FECDE90201DDE50026B44637E4334600202F4902F083F90346FFF755BB29A3D3E90023DDE9040102F04FF826A362
:40380000D3E9002302F04AF80346FFF746BBB8F1010F03467FF441AB01F10041FFF73DBB00297FF446ABC3F58263033347FA03F000FA03F3BB4217D08846FFF710BB1B4B56
:403840009C423FF709AEDDE90023924693462EE64FF480264FF0010CFFF7FABB5A4600F057FB02460B46D3E600F00100C0F10208FFF7F5BAAFF30080000000604715F73F56
:4038800044DF5DF80BAE543E555555555555D53FFE822B654715F73F9C7500883CE4377EFEFFEF3F0000F03F0000D03F0000E03F2DE9F041604E0C46B6460E407645054604
:4038C0000B4600F098800029024676DD5FEA215E00F08180AEF2FF3EC3F313031EF0010F43F480135ED100273C46D10F01EB43034FEA6E0E520016204FF4001165189D428A
:403900004FEAD2764FEA420202DC5B1B6C180F44013806EB43034FEA5101EFD1844620264FF000410AE0A34220D0D50F013E4FEA510105EB43034FEA420220D09C420CEB2E
:403940000105F0DA002D05EB010C09DBA0461B1B954288BF03F1FF334446521B0844E4E7BCF1000FF2DB04F10108F0E7954217D8002D05EB010C48DB98460023ECE7134360
:4039800015D140087B1003F17F5303F50013FA0703EB0E57394648BF40F00040BDE8F0811C46C2E7D10F01EB430352009BE7411C31D000F001031844E3E721F00046064314
:4039C000ECD079BB8E46D30AAEF1150E5205002BF9D0DC0222D400215B00D80201F10101FAD5C1F10100C1F1200422FA04F4234386448A406EE702460B4601F04FFF2A46F8
:403A0000234601F099FDBDE8F081BCF1000FAADAA0460023A0E701373046B3E7202401200021E2E702460B4601F084FD02460B4602F05EF8B2E700BF0000F07F0000000066
:403A40002DE9F84FBE4B21F000469E420D468A4604460FDDBB4B9E4200F3B08000F0AB80B94BBA49BA4CBAF1000FC8BF19462046BDE8F88FB74B9E4200F3BA80A3F1DE73F9
:403A80009E4240F3A5804FF0FF3B22462B462046294601F003FF02460B468046894601F0FDFE8FA3D3E9002306460F4601F0F6FE8DA3D3E9002301F03FFD32463B4601F0DD
:403AC000EDFE8BA3D3E9002301F036FD32463B4601F0E4FE88A3D3E9002301F02DFD32463B4601F0DBFE86A3D3E9002301F024FD32463B4601F0D2FE83A3D3E9002301F02C
:403B00001BFD42464B4601F0C9FE81A3D3E90023804689463046394601F0C0FE7EA3D3E9002301F007FD32463B4601F0B7FE7CA3D3E9002301F0FEFC32463B4601F0AEFE4D
:403B400079A3D3E9002301F0F5FC32463B4601F0A5FE77A3D3E9002301F0ECFC32463B4601F09CFEBBF1FF3F02460B4667D04046494601F0E1FC22462B4601F08FFE764ECD
:403B8000764B4FEACB0B5E449B44DBE9002301F0D1FC22462B4601F0CDFC02460B46D6E9000101F0C7FCBAF1000F0446BFF65FAF01F100415BE700283FF452AF2246204609
:403BC00029462B4601F0B8FC04462046BDE8F88F59A3D3E9002301F0AFFC0022604B02F0EDF800283FF44FAF29462046BDE8F88F00F0C2F85B4B04469E420D462FDCA3F57F
:403C000050239E4254DC02460B4601F095FC0022534B01F08FFC002206460F46204629464FF0804301F088FC02460B463046394601F05EFF4FF0000B04460D4625E7404646
:403C4000494601F079FC22462B4601F027FE02460B462046294601F06DFC044607E7424B9E421ADC0022414B01F064FC002206460F46204629463D4B01F010FE0022384B3A
:403C800001F05AFC02460B463046394601F030FF4FF0020B04460D46F7E602460B460020334901F025FF4FF0030B04460D46ECE600222B4B01F03EFC002206460F46204657
:403CC0002946274B01F038FC02460B463046394601F00EFF4FF0010B04460D46D5E600BF11DA22E33AAD903FEB0D76244B7BA93F513DD0A0660DB13F6E204CC5CD45B73FE2
:403D0000FF8300922449C23F0D5555555555D53F2F6C6A2C44B4A2BF9AFDDE522DDEAD3F6D9A74AFF2B0B33F711623FEC671BC3FC4EB98999999C93F9C7500883CE4377ECF
:403D4000FFFF0F440000F07FFB21F93FFB21F9BF182D4454FFFFDB3FD8650000B86500000000F03FFFFFF23FFF7F03400000F83F0000F0BFAFF3008021F00041704700BF1D
:403D800041F0004101F58010C00F704710B431F0004408D0114BA1F580129A4208D804205DF8044B704718B902205DF8044B704701F1FF41094B01F5E0019942EFD9B4F5CE
:403DC000801F01D20320EBE7054B9C4201D00020E6E7B0FA80F04009E2E700BFFFFFDF7F0000F07F0020704700200149704700BF0000F87FF0B5C1F30A5EAEF2FF35132DB7
:403E000083B002460B460C464FEAD17607462EDC002D48DB3C49294101EA030010432BD049080B4053EA02070CD04FF48023132D24EA010143FA05F444EA01040CBF4FF0AB
:403E4000004700273149234601EBC606D6E900453A462046294601F06FFBCDE90001DDE9000122462B4601F065FB03B0F0BD332D06DDB5F5806F43D01046194603B0F0BD79
:403E8000AEF2134E4FF0FF3121FA0EF10142F3D049080142D6D04FF0804320EA010143FA0EF70F43CEE721F000410143E4D0C3F3130141EA000CCCF1000141EA0C0C134939
:403EC0005C0C4FEA1C3C0CF4002C640401EBC6014CEA0403D1E900452046294601F02CFBCDE90001DDE9000122462B4601F022FB024621F0004141EAC67310461946BDE79D
:403F000001F01AFBBAE700BFFFFF0F00F8650000F8B5C1F30A5604460D460B46174616BB21F00043034332D00022314B01F0B6FC304A044697420D460B4637DB40F2FE7202
:403F4000C1F30A56363E3E44964215DD24A1D1E9000122462B4600F053F821A3D3E9002301F09CFCF8BD40F2FF72964224D040F2FE723E449642E9DC002E09DD23F0FF435F
:403F800023F4E00343EA065520462946F8BDF8BD16F1350F15DA4CF250339F42D6DC12A1D1E9000122462B4600F02AF80EA3D3E9002301F073FCF8BD02460B4601F0BCFA74
:403FC000F8BD23F0FF4323F4E003363643EA0655204629460022084B01F060FCF8BD00BF9C7500883CE4377E59F3F8C21F6EA50100005043B03CFFFF0000903CAFF30080AC
:4040000003F0004321F0004243EA0201704700BF0C2802D0102805D102E001EB510070474800704788007047022200F090BB2DE9F74F04460D461E461746002A00F0B980BD
:4040400090F836001146FFF7E3FFB4F81EA0A36A20FA0AFA9A45814680F0AB80638E04F118089A44284651464246FFF7DDFF284600F08AFB6B7B002B40F09B80A38BAA68BB
:40408000013B09EA03091FFA89F303EB020926B9216C8F4203D2276401E0791C216494F8361010290AD0202911D1484600F04EF931460746484600F054F94EE0484600F08F
:4040C0005EF9B1B20746484600F055F945E028460092019300F09CFA009A019B17F0010F13F802B01BD00BF00F0141EA06119954A28B013A934202D009F1010309E028461B
:404100000AF101014246FFF78FFF284600F03CFBAB681F7832093F0147EA1B171CE09E54A28B013A934202D009F1010309E028460AF101014246FFF777FF284600F024FB99
:40414000AB681A78310A02F00F0701F00F0122F00F024BEA07270A431A70284600F058FA94F83630202B18D1B4F84620AAB9B4F84410284600F0EBFA284600F005FBA868FD
:404180004FF0FF3100F5F47000F0EBF8284600F03FFA4FF00103A4F84630E36BB3F1FF3F09D00FB10133E3632EB1E36B013BE36301E0012000E00020BDE8FE8F6FF0704340
:4041C000FFF735BF70B5036D04460E4693B1002506E0AA1820463146531CFFF728FF0135236DA26C013B9D42F3D320463146AA18FFF7E4FF0023A3642365E364636570BD0D
:4042000070B505460C461A3089B200F0B4F805F11400210CBDE8704000F0ADB82DE9F041836804460D4608460122A1699E8B00F08EFA2846B4F81C80AF6800F0A5FAF8B9C2
:40424000013E06EA4816B6B2BE1906F11C00616800F087F821683046FFF7D2FF00F064FB0446A1B206F1160000F085F806F11800210C00F080F82846BDE8F04100F080BAE9
:40428000BDE8F0817FB50668B0F90830B568C3B9C37A13F0110F14D02946684600F0F2F930466946FFF7BAFF064B6C4693F88030022B03D128466946FFF784FF684600F049
:4042C00056FA7FBDC894FF1F70B5034602E003F8011C013A1C4622B103F003050133002DF5D193081ED04FF001354D4308E044F8105C44F80C5C44F8085C44F8045C043B81
:40430000032BA44604F11004F1DC1C46002603E04CF80650013B0436002BF9D102F003020CEB8404002302E0E154013A0133002AFAD170BD42780178431C42EA01205A782D
:404340009B7842EA002043EA002070478378C27803EB0222437803EB0222037803EB0220704703460A0A03F8011B42700A0C090E5A70997070470170090A41707047427801
:40438000037843EA02207047094A0A4BC11C10B5146821F0030118680919814201D9002010BD11609A685868013220189A6010BD4C95FF1FD882FF1F08B5FFF7E5FF00B949
:4043C000FEE708BDFFF7E0BF30B1044A9368013B93600BB9024A1360704700BFD882FF1F4C95FF1F014B586019607047D882FF1F38B50546FFF7E0FF002104462A46FFF72B
:4044000063FF204638BD000010B5064CA37C13F0010F05D000F04AF9A37C23F00103A37410BD00BFC894FF1F10B5134CFFF7ECFFA37C13F0020F1ED0A3685868FFF7C4FF71
:40444000A068FFF7C1FF0023E360A06903E0446AFFF7BAFF20460028F9D1074B586903E0C468FFF7B1FF20460028F9D1024B9A7C22F002029A7410BDC894FF1F10B5084C70
:40448000A37C0BB1002010BD4FF40073238200F03BFAA37C012043F00103A37410BD00BFC894FF1F08B583680BB10020984708BD08B583680BB10120984708BD10B504689E
:4044C0000079A468A04710BD37B59DF81850046800790095E468A0473EBD08B5036800799B69984708BD036810B55B69044623B10079984708B1002000E00120607110BDC7
:4045000010B5437904460BB9FFF7EDFF607910BDF7B504461F460E461546FFF7F1FF2046FFF7C6FF2A463146012320460097FFF7C5FF05462046FFF7B5FF2846FEBD10B548
:4045400004690919BDE81040FFF7E2BF73B504460E461546FFF7D4FF2046FFF7A9FF00232A460093314601332046FFF7ADFF05462046FFF797FF002D14BF4FF0FF3000208E
:404580007CBD10B504690919BDE81040FFF7DEBF2DE9F0411F46A1F57C73012B04460E469046056801D9FFF7ABFF2D692079314642463B46A847BDE8F0810000094B10B561
:4045C000D8689A68002308E0114652F8084B1CB901230B60486810BD01338342F4D3002010BD00BFC894FF1F084B30B50022DC689B6808E05D6819460833854202D100230E
:404600000B6030BD0132A242F4D330BDC894FF1F01230373704710B1002282720260704718B1027B0AB1013A0273704738B5FFF725FF20B3124C4200E2600001FFF7D8FEAB
:40464000238AA060E0685843FFF7D2FEA568E168228A002304E005EBC3046060013380188B42F8D31020FFF7C3FE054C60612820FFF7BEFEA37CA06143F00203A37438BDA9
:40468000C894FF1F38B510220D4600210446FFF71BFEFFF793FF08B9013038BDA0604FF0FF33002065602360A07338BDF8B5154C0025E66F1C341FE02046FFF70EFF18B933
:4046C000204600F0D1F802E0204600F0F7F80022134640F2F331204600F0AAF8002160222046E76DFFF7F0FD074B9C4202D02046FFF76AFE01353C46B542DDDB014B0022D0
:40470000DA67F8BDC894FF1FE494FF1F38B5837A044643B10568FFF7B5FD2846FFF780FF2046FFF778FF002038BD10B5437B044663B9037B53B140682168A268A37BFFF7B1
:4047400020FF08B1012363730023237310BD036870B5994204460D46164607D0037B0BB1FFF7E3FF00232560A673E37370BD10B50446FFF7DAFFA068BDE81040FFF734BF8C
:4047800001230373FFF7D1BF10B50446407B08B1012010BDE37B5BB960682168A268A37BFFF7CDFE10B10120607310BD0122E27310BD08B5436813B94FF0FF3008BD9847AF
:4047C00008BD0000F8B5174C064694F85B10E56D69B9602201272046FFF776FD84F85B70E5653046FFF7E5FF00280EDA18E045B96020FFF7E7FDE06518B129466022FFF77E
:4048000063FDE46D002CE0D10AE0074B2660DA6F0132DA670323207184F85B7084F85A302046F8BDE494FF1FC894FF1FFFF7CABFA1F57C7CBCF1030F2DE9F04106460C468B
:4048400015461F460BD9FFF748FE002803DA4FF0FF30BDE8F081304621462A463B46BDE8F041FFF795BE000010B590F8593004469BB1114B5B690EE09A7A5AB11A684AB1CC
:404880009168A14206D1002199721960117B09B101391173DB68002BEED100221346204640F2F131FFF7C4FF002384F8593063712361636110BD00BFC894FF1F38B590F8C2
:4048C000593004465BB10F4B5D6906E0AB7A1BB12B689B68A34210D0ED68002DF6D10022134620464FF47C71FFF7A2FF002384F8593063712361636138BD2846FFF706FFF4
:40490000EAE700BFC894FF1F08B505484FF48051FFF768FDBDE808400248FFF787BF00BFE482FF1F506600004FF4041070474FF6FF707047014B1868704700BFE492FF1F39
:40494000004870477066000000F0C4BC37B501220DF10701054600F0D1FC9DF80740FF2C14BF0A240724284601220DF1070100F0C5FC9DF80700FF2803D1013CE4B2002CC4
:40498000F1D13EBD37B50469857828460DF10701012200F0B3FC9DF807300BB1002003E0013CF2D14FF0FF303EBD37B54FF0FF3305460C468DF8073006E028460DF10701AA
:4049C000012200F0AAFC013C002CF6DC3EBD000038B5094C2368032B02DD4FF0FF3509E0DDB2013323601420FFF702FD04EB850460608570284638BDE492FF1F08B5034BF4
:404A00004FF400711B68984708BD00BF7C81FF1F4FEAD20CACEBD103CCF10F0C10B501336044002410F801CB013B4CEA0424F9D101F00703511A02228A40DC40013A04EAD5
:404A4000020010BD7FB5130E85788DF80530130C01F03F018DF80630130A41F040018DF8073000238DF808208DF804101A4601A911F802C000215B00DBB283EA0C0E1EF029
:404A8000800F18BF83F009030131082904D04FEA4C0C5FFA8CFCEEE70132052AE7D15B0043F001038DF809308678C4680122304603A900F023FC9DF80C30FF2B04D00CB917
:404AC000FF2009E0013CF1E7284601A9062200F024FC2846FFF73AFF04B070BDF7B5847806460F4620460121FFF75FFF204600F0BCFB304609210022FFF7A4FF8DF80700B2
:404B000028BBF6680546012220460DF1060100F0F5FB9DF80630FE2B06D0FC2B04D00135ADB2B542EFD112E00DF1070520463946102200F0E3FB29462046012200F0DEFBC8
:404B400029462046012200F0D9FB002500E0FF25204600F08EFB20460121FFF726FF2846FEBD00002DE9F04F9B46494B89B003EB800305925C684A02029103924FF0030917
:404B8000029AA578E678039B2846022E08BF13461E4600F06EFB01212846FFF706FFBBF1010F0CBF4FF0110A4FF0120A284600F05CFB204651463246FFF744FF002851D151
:404BC000059F5E46A378E268B44604924FF000081E460FE0012230460DF11F01CDF804C000F08CFB9DF81F20DDF804C0FE2A05D008F10108049B9845ECD333E02846394680
:404C00004FF40072664600F079FB0222284607A900F074FB9DF81C30384601939DF81D80FFF7ECFE4FF6FF729042019B0CD048EA0328404508D0BAF1120F13D120460C210C
:404C40000022FFF7FFFE0DE0013E02D007F50077B8E7BAF1120F07D120460C213246FFF7F1FE01E04FF0FF36284600F002FB28460121FFF79AFE3EB1B9F1000F02D009F139
:404C8000FF397DE74FF0FF36304609B0BDE8F08FE492FF1F2DE9F04F99464C4B87B0029203EB80039DF840205D68009103926B78002B40F085804B0201930327009BAC7809
:404CC000EE78019A2046022E08BF1A46164600F0D0FA01212046FFF768FEB9F1010F0CBF4FF0180A4FF0190A204600F0BEFA284651463246FFF7A6FE8DF81700002850D1AA
:404D000020460121FFF751FE029ECB46B8463046FFF774FE0DF11707BAF1180F0CBFFE23FC2301228DF817308DF81500030A394620468DF8143000F0F0FA204631464FF4E2
:404D4000007200F0EAFA0222204605A900F0E5FA01222046394600F0D1FA9DF8173003F01F03052B1CD12846FFF70CFEC0B9039A0AB906F50076BBF1010BC8D1BAF1190F39
:404D8000474611D106A96FF00203204601F8013D012200F0C2FA2846FFF7F4FD20B100E047464FF0FF3600E00026204600F061FA20460121FFF7F9FD26B10FB1013F7DE798
:404DC0004FF0FF36304607B0BDE8F08FE492FF1F2DE9F04F877887B0044638460D4600F044FA20463A210022FFF72CFE064638B1384600F03EFA38460121FFF7D6FD58E007
:404E00000DF1140804224146384600F077FA4046FFF790FA8046384600F02BFA01213846FFF7C3FDB8F1000F28F07F02B8BF4FEA987BD2B240F272634FEA1828B8BF0BF08D
:404E4000010B1FFA88F8002A14BF1A460022012111EA080F05D10136F6B24900102E89B2F6D140F27260824233460DD06422724302F5FA6208E011EA080F07D049000133A2
:404E8000013689B2DBB2F6B20F2EF4D964214B434FF6FE7103F5FA6302EA01014FF6FC72384603EA020200F007FA10F0FF0F40F099804FF0FF3092E028467E217F22FFF749
:404EC000A7FD8246EB78DFF82C8103F0030203F0780308EBD30358F822101B7C3846594389B200F0CBF90646002877D06B7803F00702DB1003F00F0308EB82024344126A0A
:404F000093F810800292B8F1000F67D0A978284603911C221A21FFF77BFD0190BAF1000F1FD1502153222846FFF772FD4FF0010909FA00F92F2131222846FFF769FD1FFA0A
:404F400089F982463E21284649224FEA5929FFF75FFD0AF1020A09FA0AF9013000FB09F910E0BAF1010F01D0012038E0284630214522FFF74DFD4FEA8029BBF1000F01D0DE
:404F80000223E37008FB06F2029B0399B2FBF3F2642303FB01225A437343D208DB089A4294BFE260E360FA235E43019BF6089A400C21B24294BF2261266128460D22FFF704
:404FC00027FD0546384600F057F94FF4007128436070A180C4F80890002000E0FF2007B0BDE8F08FE378A778012B3FF465AF4FF0000A67E708660000F0B5857887B0044611
:405000004FF4C871284600F039F9B0F5C87F00F2CC804CF25033E3600026284600F029F90A212846FFF7C1FC624B93E8030001902846ADF8081000F018F9062201A928461C
:4050400000F06BF92846FFF781FC0746284600F010F901212846FFF7A8FC17F0010F03D10136052ED9D1A0E0284600F0FEF8082120464FF4D572FFF7E5FC10F0040F52D025
:40508000284600F0F6F8A5784FF4FA66284600F0ECF8002237212046FFF7D4FC28460121FFF783FC292100222046FFF7CBFC0746284600F0DEF828460121FFF776FC17B91F
:4050C0000123E3701EE017F0040F01D1013EDDD14FF4FA66284600F0C8F8012100222046FFF7B0FC0746284600F0C3F828460121FFF75BFC0FB9E77004E0012F55D1013E7A
:40510000E8D152E001AD20462946FFF7E7FC00284BD120462946FFF75BFEC0B2002844D10123237043E00422A07805A900F0E6F8284600F09EF89DF81730AA2B35D19DF83D
:40514000163003F00F03012B2FD1A5784FF4FA66284600F08AF8002237212046FFF772FC28460121FFF721FC29214FF080422046FFF768FC0746284600F07BF82846012178
:40518000FFF713FC0FB1013EE2D101AE20463146FFF7A4FC48B90125E57020463146FFF717FEC0B208B9257001E04FF0FF3007B0F0BD00BF4866000010B5084B03EB800341
:4051C0005C6823783BB9FFF7BFFB20B12046BDE81040FFF711BF4FF0FF3010BDE492FF1F38B51D46154BA1F57B7103EB80035C68072918D8DFE801F00A1717170404171925
:40520000204600211422FFF75FF80CE0237833B92046FFF7F1FE10B14FF0FF3038BDA3882B81A3686B60002038BD2046FFF7CCF8024B00201A68013A1A6038BDE492FF1F73
:4052400008B538B9084600F093F800F08BF8C207FBD506E0084600F08BF800F083F8C307FBD5BDE8084000F08FB800B1002000F051B9012000F04EB900207047B1F5C87F34
:4052800038B506D346F2A813994228BF19460D4601E04FF4C87545F6C0536C00A4B2B3FBF4F4013C00F0C6F8A0B2012100F0CEF800F0B4F8284638BD40F6E443994206D890
:4052C00040F6E340824294BF00200120704700207047000010B5084B1A785AB901241C7000F0A8F83B20214600F0B0F800F096F800F086F8022010BDF892FF1FF8B507469A
:405300000D4616460C463846FF21FFF799FF04F8010B331BDD42F6D1F8BDF8B507460D4616460C4614F8011B3846FFF789FF331BDD42F7D1F8BD000008B5FCF7CDFC084A7B
:40534000137843F020031370D37843F01003D370537843F010035370BDE80840FCF7C0BC98640040014B1878704700BF6B640040034B1B785B07FBD5024B1870704700BFCA
:405380006B64004048640040014B1878704700BF5864004008B50B4B1B789B0602D50A4B1B78F8E7FCF798FC084B1A7842F001021A701A7802F0FE021A70BDE80840FCF7A6
:4053C0008FBC00BF69640040586400409864004008B5074B0F221A70FFF7DCFF054B064A1B78064B1B780023137002F8023C08BD886400406B6400408B6400406964004092
:4054000010B5054C23781BB9FFF7E2FF01232370BDE81040FFF790BFF992FF1F044A137843F001031370137C43F0010313747047A2430040044A137803F0FE031370137CDB
:4054400003F0FE0313747047A2430040F0B52B4B2B4E1F78328807F0070792B290424BD0284D2C78E4B26FB932B158B91A7842F040021A703080F0BD30801A7802F0BF020D
:405480001A70F0BD14F0010421D01F4F1F4B00264FF0010E1E7087F800E03E7117F8086C06F07F0607F8086C144E3678360700D568B9174E328007221A701A7812F00102BE
:4054C000FBD12B7803F0FE032B70104B1A702B780C4ADD070BD50E4B0029188014BF03220122013B1A701A78D207FCD4F0BD044B188013781C431470F0BD00BF8240004066
:4055000080400040A2430040104000400140004002400040044A137803F07F0343EAC010C0B21070704700BFF051004081F0004102E000BF83F0004330B54FEA41044FEADA
:40554000430594EA050F08BF90EA020F1FBF54EA000C55EA020C7FEA645C7FEA655C00F0E2804FEA5454D4EB5555B8BF6D420CDD2C4480EA020281EA030382EA000083EA64
:40558000010180EA020281EA0303362D88BF30BD11F0004F4FEA01314FF4801C4CEA113102D0404261EB410113F0004F4FEA03334CEA133302D0524263EB430394EA050FB6
:4055C00000F0A780A4F10104D5F1200E0DDB02FA0EFC22FA05F2801841F1000103FA0EF2801843FA05F359410EE0A5F120050EF1200E012A03FA0EFC28BF4CF0020C43FA60
:4056000005F3C01851EBE37101F0004507D54FF0000EDCF1000C7EEB00006EEB0101B1F5801F1BD3B1F5001F0CD349085FEA30004FEA3C0C04F101044FEA445212F5800F8D
:4056400080F09A80BCF1004F08BF5FEA500C50F1000041EB045141EA050130BD5FEA4C0C404141EB010111F4801FA4F10104E9D191F0000F04BF01460020B1FA81F308BF70
:405680002033A3F10B03B3F120020CDA0C3208DD02F1140CC2F10C0201FA0CF021FA02F10CE002F11402D8BFC2F1200C01FA02F120FA0CFCDCBF41EA0C019040E41AA2BFD0
:4056C00001EB0451294330BD6FEA04041F3C1CDA0C340EDC04F11404C4F1200220FA04F001FA02F340EA030021FA04F345EA030130BDC4F10C04C4F1200220FA02F001FA50
:4057000004F340EA0300294630BD21FA04F0294630BD94F0000F83F4801306BF81F480110134013D4EE77FEA645C18BF7FEA655C29D094EA050F08BF90EA020F05D054EA54
:40574000000C04BF1946104630BD91EA030F1EBF0021002030BD5FEA545C05D14000494128BF41F0004130BD14F580043CBF01F5801130BD01F0004545F0FE4141F47001F5
:405780004FF0000030BD7FEA645C1ABF194610467FEA655C1CBF0B46024650EA013406BF52EA033591EA030F41F4002130BD00BF90F0000F04BF0021704730B54FF48064FB
:4057C00004F132044FF000054FF0000150E700BF90F0000F04BF0021704730B54FF4806404F1320410F0004548BF40424FF000013EE700BF42004FEAE2014FEA31014FEAAF
:4058000002701FBF12F07F4393F07F4F81F06051704792F0000F14BF93F07F4F704730B54FF4607401F0004521F0004120E700BF50EA010208BF704730B54FF000050AE0A6
:4058400050EA010208BF704730B511F0004502D5404261EB41014FF4806404F132045FEA915C3FF4DCAE4FF003025FEADC0C18BF03325FEADC0C18BF033202EBDC02C2F1DA
:40588000200300FA03FC20FA02F001FA03FE40EA0E0021FA02F11444C1E600BF70B54FF0FF0C4CF4E06C1CEA11541DBF1CEA135594EA0C0F95EA0C0F00F0DEF82C4481EA3C
:4058C000030621EA4C5123EA4C5350EA013518BF52EA033541F4801143F4801338D0A0FB02CE4FF00005E1FB02E506F00042E0FB03E54FF00006E1FB03569CF0000F18BF9F
:405900004EF0010EA4F1FF04B6F5007F64F5407404D25FEA4E0E6D4146EB060642EAC62141EA55514FEAC52040EA5E504FEACE2EB4F1FD0C88BFBCF5E06F1ED8BEF1004FED
:4059400008BF5FEA500E50F1000041EB045170BD06F0004646EA010140EA020081EA0301B4EB5C04C2BFD4EB0C0541EA045170BD41F480114FF0000E013C00F3AB8014F151
:40598000360FDEBF002001F0004170BDC4F10004203C35DA0C341BDC04F11404C4F1200500FA05F320FA04F001FA05F240EA020001F0004221F0004110EBD37021FA04F64E
:4059C00042EB06015EEA430E08BF20EAD37070BDC4F10C04C4F1200500FA04F320FA05F001FA04F240EA020001F0004110EBD37041F100015EEA430E08BF20EAD37070BD60
:405A0000C4F1200500FA05F24EEA020E20FA04F301FA05F243EA020321FA04F001F0004121FA04F220EA020000EBD3705EEA430E08BF20EAD37070BD94F0000F0FD101F054
:405A40000046400041EB010111F4801F08BF013CF7D041EA060195F0000F18BF704703F00046520043EB030313F4801F08BF013DF7D043EA0603704794EA0C0F0CEA13559A
:405A800018BF95EA0C0F0CD050EA410618BF52EA4306D1D181EA030101F000414FF0000070BD50EA410606BF1046194652EA430619D094EA0C0F02D150EA013613D195EA64
:405AC0000C0F05D152EA03361CBF104619460AD181EA030101F0004141F0FE4141F470014FF0000070BD41F0FE4141F4780170BD70B54FF0FF0C4CF4E06C1CEA11541DBF25
:405B00001CEA135594EA0C0F95EA0C0F00F0A7F8A4EB050481EA030E52EA03354FEA013100F088804FEA03334FF0805545EA131343EA12634FEA022245EA111545EA10657A
:405B40004FEA00260EF000419D4208BF964244F1FD0404F5407402D25B084FEA3202B61A65EB03055B084FEA32024FF480104FF4002CB6EB020E75EB030E22BFB61A7546BA
:405B800040EA0C005B084FEA3202B6EB020E75EB030E22BFB61A754640EA5C005B084FEA3202B6EB020E75EB030E22BFB61A754640EA9C005B084FEA3202B6EB020E75EBC6
:405BC000030E22BFB61A754640EADC0055EA060E18D04FEA051545EA16754FEA06164FEAC30343EA52734FEAC2025FEA1C1CC0D111F4801F0BD141EA00014FF000004FF05B
:405C0000004CB6E711F4801F04BF01430020B4F1FD0C88BFBCF5E06F3FF6AFAEB5EB030C04BFB6EB020C5FEA500C50F1000041EB045170BD0EF0004E4EEA113114EB5C044F
:405C4000C2BFD4EB0C0541EA045170BD41F480114FF0000E013C90E645EA060E8DE60CEA135594EA0C0F08BF95EA0C0F3FF43BAF94EA0C0F0AD150EA01347FF434AF95EA7D
:405C80000C0F7FF425AF104619462CE795EA0C0F06D152EA03353FF4FDAE1046194622E750EA410618BF52EA43067FF4C5AE50EA41047FF40DAF52EA43057FF4EBAE12E73F
:405CC0004FF0FF3C06E000BF4FF0010C02E000BF4FF0010C4DF804CD4FEA410C7FEA6C5C4FEA430C18BF7FEA6C5C1BD001B050EA410C0CBF52EA430C91EA030F02BF90EAAE
:405D0000020F0020704710F1000F91EA030F58BF994208BF90422CBFD8176FEAE37040F0010070474FEA410C7FEA6C5C02D150EA013C07D14FEA430C7FEA6C5CD6D152EA70
:405D4000033CD3D05DF8040B704700BF8446104662468C461946634600E000BF01B5FFF7B7FF002848BF10F1000F01BD4DF808EDFFF7F4FF0CBF012000205DF808FB00BF81
:405D80004DF808EDFFF7EAFF34BF012000205DF808FB00BF4DF808EDFFF7E0FF94BF012000205DF808FB00BF4DF808EDFFF7CEFF94BF012000205DF808FB00BF4DF808EDE3
:405DC000FFF7C4FF34BF012000205DF808FB00BF4FEA410212F5001215D211D56FF47873B3EB625212D94FEAC12343F0004343EA505311F0004F23FA02F018BF40427047E0
:405E00004FF00000704750EA013005D111F0004008BF6FF0004070474FF00000704700BF4FEA4102B2F1E04324BFB3F5001CDCF1FE5C0DD901F0004C4FEAC0024CEA5070F4
:405E4000B2F1004F40EB830008BF20F00100704711F0804F21D113F13872BCBF01F00040704741F480114FEA5252C2F11802C2F1200C10FA0CF320FA02F018BF40F00100B4
:405E80004FEAC1234FEAD32303FA0CFC40EA0C0023FA02F34FEA4303CCE77FEA625307D150EA01331EBF4FF0FE4040F44000704701F0004040F0FE4040F40000704700BFE5
:405EC00080F0004002E000BF81F0004142001FBF5FEA410392EA030F7FEA226C7FEA236C6AD04FEA1262D2EB1363C1BFD218414048404140B8BF5B42192B88BF704710F011
:405F0000004F40F4000020F07F4018BF404211F0004F41F4000121F07F4118BF494292EA030F3FD0A2F1010241FA03FC10EB0C00C3F1200301FA03F100F0004302D549422E
:405F400060EB4000B0F5000F13D3B0F1807F06D340084FEA310102F10102FE2A51D2B1F1004F40EBC25008BF20F0010040EA03007047490040EB000010F4000FA2F1010288
:405F8000EDD1B0FA80FCACF1080CB2EB0C0200FA0CF0AABF00EBC25052421843BCBFD0401843704792F0000F81F4000106BF80F400000132013BB5E74FEA41037FEA226CFA
:405FC00018BF7FEA236C21D092EA030F04D092F0000F08BF0846704790EA010F1CBF0020704712F07F4F04D1400028BF40F00040704712F100723CBF00F50000704700F0E7
:40600000004343F0FE4040F4000070477FEA226216BF08467FEA23630146420206BF5FEA412390EA010F40F4800070474FF0000304E000BF10F0004348BF40425FEA000CCA
:4060400008BF704743F0964301464FF000001CE050EA010208BF70474FF000030AE000BF50EA010208BF704711F0004302D5404261EB41015FEA010C02BF84460146002040
:4060800043F0B64308BFA3F18053A3F50003BCFA8CF2083AA3EBC25310DB01FA02FC634400FA02FCC2F12002BCF1004F20FA02F243EB020008BF20F00100704702F120029C
:4060C00001FA02FCC2F1200250EA4C0021FA02F243EB020008BF20EADC7070474FF0FF0C1CEAD0521EBF1CEAD15392EA0C0F93EA0C0F6FD01A4480EA010C400218BF5FEA1B
:4061000041211ED04FF0006343EA501043EA5111A0FB01310CF00040B1F5000F3EBF490041EAD3715B0040EA010062F17F02FD2A1DD8B3F1004F40EBC25008BF20F0010060
:40614000704790F0000F0CF0004C08BF49024CEA502040EA51207F3AC2BFD2F1FF0340EAC250704740F400004FF00003013A5DDC12F1190FDCBF00F000407047C2F1000200
:40618000410021FA02F1C2F1200200FA02FC5FEA310040F1000053EA4C0308BF20EADC70704792F0000F00F0004C02BF400010F4000F013AF9D040EA0C0093F0000F01F01A
:4061C000004C02BF490011F4000F013BF9D041EA0C018FE70CEAD15392EA0C0F18BF93EA0C0F0AD030F0004C18BF31F0004CD8D180EA010000F00040704790F0000F17BF78
:4062000090F0004F084691F0000F91F0004F14D092EA0C0F01D142020FD193EA0C0F03D14B0218BF084608D180EA010000F0004040F0FE4040F40000704740F0FE4040F423
:40624000400070474FF0FF0C1CEAD0521EBF1CEAD15392EA0C0F93EA0C0F69D0A2EB030280EA010C49024FEA402037D04FF0805343EA111143EA10130CF000408B4238BFA1
:406280005B0042F17D024FF4000C8B4224BF5B1A40EA0C00B3EB510F24BFA3EB510340EA5C00B3EB910F24BFA3EB910340EA9C00B3EBD10F24BFA3EBD10340EADC001B01F0
:4062C00018BF5FEA1C1CE0D1FD2A3FF650AF8B4240EBC25008BF20F0010070470CF0004C4CEA50207F32C2BFD2F1FF0340EAC250704740F400004FF00003013A37E792F078
:40630000000F00F0004C02BF400010F4000F013AF9D040EA0C0093F0000F01F0004C02BF490011F4000F013BF9D041EA0C0195E70CEAD15392EA0C0F08D142027FF47DAFB1
:4063400093EA0C0F7FF470AF084676E793EA0C0F04D14B023FF44CAF08466EE730F0004C18BF31F0004CCAD130F000427FF45CAF31F000437FF43CAF5FE700BF4FF0FF3C51
:4063800006E000BF4FF0010C02E000BF4FF0010C4DF804CD4FEA40024FEA41037FEA226C18BF7FEA236C11D001B052EA530C18BF90EA010F58BFB2EB030088BFC81738BFC9
:4063C0006FEAE17018BF40F0010070477FEA226C02D15FEA402C05D17FEA236CE4D15FEA412CE1D05DF8040B704700BF844608466146FFE70FB5FFF7C9FF002848BF10F19A
:40640000000F0FBD4DF808EDFFF7F4FF0CBF012000205DF808FB00BF4DF808EDFFF7EAFF34BF012000205DF808FB00BF4DF808EDFFF7E0FF94BF012000205DF808FB00BF1D
:406440004DF808EDFFF7D2FF94BF012000205DF808FB00BF4DF808EDFFF7C8FF34BF012000205DF808FB00BF014B1868704700BFE081FF1F0E4B70B51E460E4C0025E41A0E
:40648000A410A54204D056F8253098470135F8E700F0F2F8084B094C1E46E41AA4100025A54204D056F8253098470135F8E770BD8466000084660000846600008C660000EA
:4064C00010B5431E0A44914204D011F8014B03F8014FF8E710BD03460244934202D003F8011BFAE77047000000000000000000008500000000000000000000005117000063
:40650000150200000000000051020000B11700000000000000000000F10B0000F110000000000000050200005901000000000000C84900401900004F004018001051004019
:406540001000305100404000000001400008800801400002000B0140000500140140000800400140000A004C0140000200500140200000006173696E00000000706F77007C
:40658000737172740000000000000000000000000000004003B8E23F000000000000000006D0CF43EBFD4C3E000000000000F03F000000000000F83FE2652F227F2B7A3C3D
:4065C000075C143326A6813CBDCBF07A8807703C075C143326A6913C4FBB610567ACDD3F182D4454FB21E93F9BF681D20B73EF3F182D4454FB21F93F000000000000304304
:4066000000000000000030C30A00000064000000E803000010270000000A0C0D0F14191E23282D32373C41508096980040420F00A086010010270000E803000064000000C0
:406640000A00000001000000400000000095000041490000D1490000654B0000954C0000E1510000B951000049490000354900006D6D630043000000F8B500BFF8BC08BC55
:406680009E4670474D00000029180000F8B500BFF8BC08BC9E46704729000000B06600000881FF1FE00000006813000000000000000000001865000014650000086500008E
:4066C000FC640000F8640000F0640000000000000000000000000001FFFFFFFFFFFF000000000000BD1E0000D51E000000000000AD1E000019071A061B101C0037026B00CB
:4067000000003B3C3D3E3F4041424344454647480A16000000000000F42EF474CD8B0100010000002F49000000000000000000000000000000000000000000000000000048
:40674000000000000000000074660000000000000000000000000000000000000000000000000000000000000000000000000000000000000000000000000000000000003F
:4067800000000000000000008081FF1F00000000000000000000000000000000000000000000000000000000000000000000000000000000000000000000000000000000BA
:4067C0000000000000000000000000000000000000000000000000000000000000000000000000000000000000000000000000000000000000000000000000000000000099
:406800000000000000000000000000000000000000000000000000000000000000000000000000000000000000000000000000000000000000000000000000000000000058
:406840000000000000000000000000000000000000000000000000000000000000000000000000000000000000000000000000000000000000000000000000000000000018
:4068800000000000000000000000000000000000000000000000000000000000000000000000000000000000000000000000000000000000000000000000000000000000D8
:020000040003F7
:0200000480007A
:40000000044F004007520040026400400265004003030140670401403D0501400D0701400F0801404E090140160A0140320B0140040C0140020D0140051501400B1701404E
:40004000671801404C190140411A01404B1B014003400140104101401A420140094301400244014001450140044601400247014006480140114901400A4C01400D4D014018
:40008000055001400351014001400A4B0D30161B00C6015514046082644379407C04880F8A388A728B0F84408820E6220110030C0612071009090B100E011088120313036A
:4000C00014E0151C17021AEC1C041E432021211422022D0C2F113010311F340F36E03E404060410249FF4AFF4BFF4DA04F0450185280580459045A045B045C105D225F01C8
:40010000604062C06440654066C068C06AC06CC06EC080188101830285048A068C1891019204930699049B019E02A201A610A707A808B002B218B307B401B604B808BB080D
:40014000BE04C060C102C510C625C80EC9FFCAFFCBFFCDAFCE0FCF04D018D804D904DA04DB04DC12DD02DF01E040E2C0E440E540E6C0E8C0EAC0ECC0EEC0004003200512DB
:40018000064208820A240F82110215041690172018401A061D101E081F4921022608272029012A402D0431023208350237203A123B043E023F04412045204A044B104F123C
:4001C000552057406C8A6D0872807460860187048B608C088D049702A460AB01C0D5C29FC478CA49CCA3CEC7D024D224E202E402E6D0EA1080809C829D039E12A720A802CB
:40020000A903AA10B080B308E601E801EE858D018F069104930399059B029D039F04B107B707BB82D440D904DB04DF010428058007400D800E600F08150117141E08210267
:40024000230124182530260227402E202F42312233403580361237043B803D213E44459046804708480849104D024E024F0854085620571260106110624067016C016D0158
:400280006E446F1C7580834086408702938094409501966A970299019A109B089C089D809F54A185A210A530A739A820A990B209B308B401C0F0C2F0C470CAB0CCFDCEF8F1
:4002C000D0F0D210D81EE820040A0A040C0A1408160218081A021E042401300832023404360138083E515418560458045B045C015D105F010050032005940A280B020DA028
:400300000E500F20102015011754181619011D941E201F40268827882D802F48360837503D213E40460855075A025C085E115F8060046342640178017A8085028A10974036
:40034000B708C0E7C2F7C4F4CAB0CC70CEB0D020D6F1D81DE422EA1038083E0458045F011F0887408A109E10E018E280EA81810185028E029D039E12A802AB20E204E60C57
:40038000E802EE05000104A2060808040C0112401401150118101C071ED82001210128012C082E6130E03301363F388039083E404023410146C047BE483849FF4AFF4BFF6A
:4003C0004EF04F44500C580459045A045D015F0166C06A406B02808081018316841685C789848B618D428E678FA99208948095C798309A459C309E43A002A480A830AA40E2
:40040000AE08B008B107B280B3C0B474B530B607B708BAA0BE01BF10C023C104C205C406C5E0C7C0C822C9FFCAFFCBFFCC62CDA0CEF0CF41D00CD804D904DA04DC11DD012F
:40044000DF01E640E702E910EA30EB10ED10EE10EF12000202100301042A0580080409400A840B400D800E600F08100211261501175019501A141B011E401F4020082101F8
:400480002202231124202E102F4430043304360439463B1040404210432044084548460248044B425002551056298201854086028C088D10900A91019460962A9702998187
:4004C0009A109B50A185A214A304A721A804AB04AE80B008B102C0FDC2FFC4DFCA80CC42CE0FD077D20CE240E604030404130508060C080F09800A100C1F0D44100311C04A
:40050000140C1518191C1A131BE11C0C1D101E13200821FF240427E3280229E72B182C012D3C2FC231C0321C331F340F37383A2A3B0856025713580459045B045C115D106E
:400540005F018501860188018C01A201A502A601B001B301B502B701BE01BF14D401D604D804D904DB04DC10DD10DF01004003280550061008510A100B081080114013143D
:40058000142016201701184019221A201B281E80224525082709281029222B012E0830813104321239403B153D0859015C205E805F0A6602680169046B0470807104721079
:4005C00073048440860487018A0A8B038D4093199440954496AA99519A389F05A104A202A401A508A720AA40C0E7C20FC43FCA4FCC0FCE4FD6F1D880E018E280E620E80483
:40060000EA8130103420CC3052105302544056026001620865818410861088409C30D4E0D6E0D8C0E240E64007201B041C803E103F0843805440578059048B028C018D01B9
:40064000940199049C209D81A608A702AA02B504C020C630CEA0D010D640EE206504961099049B209C20AA08B180D880EA207C40DE049440522086209440D404B440E802EE
:40068000800196109C20AF20E620E8401302164070017508864088208F02900299089C20AA10B108C430DC80DE20E010EA8012801320144072207B087F408280C40EDC015A
:4006C000DE03128087408E808F089780A708AA20AB20B040C408E008E202EA0100070A070C0310031C03000F03C0043C00B4FF007F94802000086075C0340180904B4030DF
:400700008080003400149F001FB42000C03F0240C0000800C02004020000008000780080FF07000000020030000010045201300004EBC0DF3BFFFFFF2200F00804000000C5
:400740000000022004040404000000010000C00040011011C00100114001400100000000000000000000000000000000002D000024001000C01200481C0D00200C001000F0
:400780000802000D702D0F00115262041C11004210000C00142D0800212D9E000040300FC1200F102000080800000051020000000000005130FF07FF4020F0050800000008
:4007C00009000000040404040001000140A840200000000000000000000000000000000000000000000000000000000000FFFF00FF00000083004883800083000000000048
:400800000000C4101000500000000000040202000000000000000000000000000000000000000000000000000000000000000000000000000000000000000000000000007C
:400840000000000000000000000000000000000000000000000000000000000000000000000000000000000000000000000000000000000000000000000000000000000078
:400880000000000000000000000000000000000000000000000000000000000000000000000000000000000000000000000000000000000000000000000000000000000038
:4008C00000000000000000000000000000000000000000000000000000000000000000000000000000000000000000000000000000000000000000000000000000000000F8
:4009000000000000000000000000000000000000000000000000000000000000000000000000000000000000000000000000000000000000000000000000000000000000B7
:0200000490006A
:0400000000004005B7
:0200000490105A
:04000000BC90ACAF55
:0200000490303A
:02000000ACBD95
:0200000490402A
